{
  "_format": "hh-sol-artifact-1",
  "contractName": "DomainWalletRegistryFacet",
  "sourceName": "contracts/domain-wallets/DomainWalletRegistry/DomainWalletRegistryFacet.sol",
  "abi": [
    {
      "inputs": [],
      "name": "CallerNotOwner",
      "type": "error"
    },
    {
      "inputs": [
        {
          "internalType": "uint256",
          "name": "metadataCount",
          "type": "uint256"
        },
        {
          "internalType": "uint256",
          "name": "validMetadataCount",
          "type": "uint256"
        }
      ],
      "name": "InvalidNftMetadataCollectionLength",
      "type": "error"
    },
    {
      "inputs": [
        {
          "internalType": "uint256",
          "name": "length",
          "type": "uint256"
        },
        {
          "internalType": "bytes",
          "name": "uri",
          "type": "bytes"
        }
      ],
      "name": "MaximumCharacterLimitExceeded",
      "type": "error"
    },
    {
      "anonymous": false,
      "inputs": [
        {
          "indexed": false,
          "internalType": "bytes",
          "name": "subDomain",
          "type": "bytes"
        },
        {
          "indexed": false,
          "internalType": "uint256",
          "name": "tokenId",
          "type": "uint256"
        },
        {
          "indexed": false,
          "internalType": "uint256",
          "name": "ttl",
          "type": "uint256"
        }
      ],
      "name": "Expired",
      "type": "event"
    },
    {
      "anonymous": false,
      "inputs": [
        {
          "indexed": false,
          "internalType": "uint64",
          "name": "id",
          "type": "uint64"
        },
        {
          "indexed": false,
          "internalType": "bytes",
          "name": "subDomain",
          "type": "bytes"
        },
        {
          "indexed": false,
          "internalType": "uint256",
          "name": "ttl",
          "type": "uint256"
        },
        {
          "indexed": false,
          "internalType": "uint256",
          "name": "tokenId",
          "type": "uint256"
        }
      ],
      "name": "Registered",
      "type": "event"
    },
    {
      "anonymous": false,
      "inputs": [
        {
          "indexed": false,
          "internalType": "uint256",
          "name": "tokenId",
          "type": "uint256"
        },
        {
          "indexed": false,
          "internalType": "bytes",
          "name": "subDomain",
          "type": "bytes"
        }
      ],
      "name": "Removed",
      "type": "event"
    },
    {
      "anonymous": false,
      "inputs": [
        {
          "indexed": false,
          "internalType": "uint256",
          "name": "tokenId",
          "type": "uint256"
        },
        {
          "indexed": false,
          "internalType": "bytes",
          "name": "subDomain",
          "type": "bytes"
        }
      ],
      "name": "Revoked",
      "type": "event"
    },
    {
      "inputs": [
        {
          "internalType": "uint256",
          "name": "pkpTokenId",
          "type": "uint256"
        }
      ],
      "name": "hasExpired",
      "outputs": [
        {
          "internalType": "bool",
          "name": "",
          "type": "bool"
        }
      ],
      "stateMutability": "nonpayable",
      "type": "function"
    },
    {
      "inputs": [
        {
          "internalType": "bytes",
          "name": "userId",
          "type": "bytes"
        },
        {
          "internalType": "bytes",
          "name": "uri",
          "type": "bytes"
        },
        {
          "internalType": "uint256",
          "name": "ttl",
          "type": "uint256"
        },
        {
          "internalType": "uint256",
          "name": "pkpTokenId",
          "type": "uint256"
        },
        {
          "internalType": "string[]",
          "name": "nftMetadata",
          "type": "string[]"
        }
      ],
      "name": "registerDomain",
      "outputs": [
        {
          "internalType": "uint256",
          "name": "",
          "type": "uint256"
        }
      ],
      "stateMutability": "nonpayable",
      "type": "function"
    },
    {
      "inputs": [
        {
          "internalType": "bytes",
          "name": "userId",
          "type": "bytes"
        },
        {
          "internalType": "bytes",
          "name": "uri",
          "type": "bytes"
        },
        {
          "internalType": "uint256",
          "name": "ttl",
          "type": "uint256"
        },
        {
          "internalType": "uint256[]",
          "name": "permittedAuthMethodTypes",
          "type": "uint256[]"
        },
        {
          "internalType": "bytes[]",
          "name": "permittedAuthMethodIds",
          "type": "bytes[]"
        },
        {
          "internalType": "bytes[]",
          "name": "permittedAuthMethodPubkeys",
          "type": "bytes[]"
        },
        {
          "internalType": "uint256[][]",
          "name": "permittedAuthMethodScopes",
          "type": "uint256[][]"
        },
        {
          "internalType": "string[]",
          "name": "nftMetadata",
          "type": "string[]"
        }
      ],
      "name": "registerDomainAndMintNext",
      "outputs": [
        {
          "internalType": "uint256",
          "name": "",
          "type": "uint256"
        }
      ],
      "stateMutability": "payable",
      "type": "function"
    },
    {
      "inputs": [
        {
          "internalType": "uint64",
          "name": "id",
          "type": "uint64"
        },
        {
          "internalType": "uint256",
          "name": "pkpTokenId",
          "type": "uint256"
        }
      ],
      "name": "registerPKP",
      "outputs": [
        {
          "internalType": "bool",
          "name": "",
          "type": "bool"
        }
      ],
      "stateMutability": "nonpayable",
      "type": "function"
    },
    {
      "inputs": [
        {
          "internalType": "uint256",
          "name": "pkpTokenId",
          "type": "uint256"
        }
      ],
      "name": "removeDomain",
      "outputs": [
        {
          "internalType": "bool",
          "name": "",
          "type": "bool"
        }
      ],
      "stateMutability": "nonpayable",
      "type": "function"
    },
    {
      "inputs": [
        {
          "internalType": "uint256",
          "name": "pkpTokenId",
          "type": "uint256"
        }
      ],
      "name": "revokeDomain",
      "outputs": [
        {
          "internalType": "bool",
          "name": "",
          "type": "bool"
        }
      ],
      "stateMutability": "nonpayable",
      "type": "function"
    },
    {
      "inputs": [
        {
          "internalType": "uint256",
          "name": "pkpTokenId",
          "type": "uint256"
        },
        {
          "internalType": "string[]",
          "name": "nftMetadata",
          "type": "string[]"
        }
      ],
      "name": "setPKPMetadata",
      "outputs": [],
      "stateMutability": "nonpayable",
      "type": "function"
    },
    {
      "inputs": [
        {
          "internalType": "uint256",
          "name": "pkpTokenId",
          "type": "uint256"
        },
        {
          "internalType": "bytes",
          "name": "record",
          "type": "bytes"
        }
      ],
      "name": "updateDomainRecord",
      "outputs": [
        {
          "internalType": "bool",
          "name": "",
          "type": "bool"
        }
      ],
      "stateMutability": "nonpayable",
      "type": "function"
    }
  ],
  "bytecode": "0x608060405234801561001057600080fd5b50613561806100206000396000f3fe60806040526004361061007b5760003560e01c80635b0457241161004e5780635b04572414610167578063b6e7f4d2146101a4578063c9b28749146101cd578063d964a3751461020a5761007b565b806306985fb11461008057806315d46474146100bd57806349fcbc54146100fa5780635530adf814610137575b600080fd5b34801561008c57600080fd5b506100a760048036038101906100a29190611c9c565b610247565b6040516100b49190611d13565b60405180910390f35b3480156100c957600080fd5b506100e460048036038101906100df9190611d2e565b6103c0565b6040516100f19190611d13565b60405180910390f35b34801561010657600080fd5b50610121600480360381019061011c9190611d2e565b610524565b60405161012e9190611d13565b60405180910390f35b610151600480360381019061014c9190612167565b6106bf565b60405161015e91906122f0565b60405180910390f35b34801561017357600080fd5b5061018e6004803603810190610189919061230b565b61090f565b60405161019b91906122f0565b60405180910390f35b3480156101b057600080fd5b506101cb60048036038101906101c691906123da565b610b5f565b005b3480156101d957600080fd5b506101f460048036038101906101ef9190612476565b610cb7565b6040516102019190611d13565b60405180910390f35b34801561021657600080fd5b50610231600480360381019061022c9190611d2e565b610dbd565b60405161023e9190611d13565b60405180910390f35b6000610251610f21565b73ffffffffffffffffffffffffffffffffffffffff163373ffffffffffffffffffffffffffffffffffffffff16146102b5576040517f5cd8319200000000000000000000000000000000000000000000000000000000815260040160405180910390fd5b600015156102c1610f54565b600201600085815260200190815260200160002060050160009054906101000a900460ff161515036102f657600090506103ba565b816102ff610f54565b6002016000858152602001908152602001600020600601908161032291906126cd565b5061032b610f54565b600201600084815260200190815260200160002060060161034a610f54565b6001016000610357610f54565b600201600087815260200190815260200160002060010160009054906101000a900467ffffffffffffffff1667ffffffffffffffff1667ffffffffffffffff16815260200190815260200160002060060190816103b491906127ca565b50600190505b92915050565b60006103ca610f21565b73ffffffffffffffffffffffffffffffffffffffff163373ffffffffffffffffffffffffffffffffffffffff161461042e576040517f5cd8319200000000000000000000000000000000000000000000000000000000815260040160405180910390fd5b6000610438610f63565b73ffffffffffffffffffffffffffffffffffffffff166357ed7a756040518163ffffffff1660e01b8152600401602060405180830381865afa158015610482573d6000803e3d6000fd5b505050506040513d601f19601f820116820180604052508101906104a69190612910565b90508073ffffffffffffffffffffffffffffffffffffffff16632b553551846040518263ffffffff1660e01b81526004016104e191906122f0565b600060405180830381600087803b1580156104fb57600080fd5b505af115801561050f573d6000803e3d6000fd5b5050505061051c83610f6b565b915050919050565b600061052e610f21565b73ffffffffffffffffffffffffffffffffffffffff163373ffffffffffffffffffffffffffffffffffffffff1614610592576040517f5cd8319200000000000000000000000000000000000000000000000000000000815260040160405180910390fd5b600061059c610f54565b600201600084815260200190815260200160002060040154905060006105c0610f54565b600201600085815260200190815260200160002060030180546105e2906124f0565b80601f016020809104026020016040519081016040528092919081815260200182805461060e906124f0565b801561065b5780601f106106305761010080835404028352916020019161065b565b820191906000526020600020905b81548152906001019060200180831161063e57829003601f168201915b505050505090506000428310905080156106b6577fb2363f688f7b32557c64bff90081959f0bb6c24f09ca465424c5afc5854dc58d8286856040516106a2939291906129b1565b60405180910390a1600193505050506106ba565b5050505b919050565b60006106c9610f21565b73ffffffffffffffffffffffffffffffffffffffff163373ffffffffffffffffffffffffffffffffffffffff161461072d576040517f5cd8319200000000000000000000000000000000000000000000000000000000815260040160405180910390fd5b6000610737610f63565b73ffffffffffffffffffffffffffffffffffffffff166357ed7a756040518163ffffffff1660e01b8152600401602060405180830381865afa158015610781573d6000803e3d6000fd5b505050506040513d601f19601f820116820180604052508101906107a59190612910565b90506107af610f63565b73ffffffffffffffffffffffffffffffffffffffff166327bd069e8a6040518263ffffffff1660e01b81526004016107e791906129ef565b60006040518083038186803b1580156107ff57600080fd5b505afa158015610813573d6000803e3d6000fd5b50505050600283511461086157825160026040517f216aeb3f000000000000000000000000000000000000000000000000000000008152600401610858929190612a4c565b60405180910390fd5b60008173ffffffffffffffffffffffffffffffffffffffff1663ffc833253460028b8b8b8b8b6001806040518a63ffffffff1660e01b81526004016108ad989796959493929190612e87565b60206040518083038185885af11580156108cb573d6000803e3d6000fd5b50505050506040513d601f19601f820116820180604052508101906108f09190612f3d565b90506108fe8b8b838c6112d9565b809250505098975050505050505050565b6000610919610f21565b73ffffffffffffffffffffffffffffffffffffffff163373ffffffffffffffffffffffffffffffffffffffff161461097d576040517f5cd8319200000000000000000000000000000000000000000000000000000000815260040160405180910390fd5b60028251146109c1576040517f08c379a00000000000000000000000000000000000000000000000000000000081526004016109b890613013565b60405180910390fd5b6002825114610a0b57815160026040517f216aeb3f000000000000000000000000000000000000000000000000000000008152600401610a02929190612a4c565b60405180910390fd5b610a13610f54565b6005015485511115610a5f578451856040517fc7735455000000000000000000000000000000000000000000000000000000008152600401610a56929190613033565b60405180910390fd5b6000610a69610f63565b73ffffffffffffffffffffffffffffffffffffffff166357ed7a756040518163ffffffff1660e01b8152600401602060405180830381865afa158015610ab3573d6000803e3d6000fd5b505050506040513d601f19601f82011682018060405250810190610ad79190612910565b9050610ae5878786886112d9565b8073ffffffffffffffffffffffffffffffffffffffff1663782e2ea585856040518363ffffffff1660e01b8152600401610b20929190613063565b600060405180830381600087803b158015610b3a57600080fd5b505af1158015610b4e573d6000803e3d6000fd5b505050508391505095945050505050565b610b67610f21565b73ffffffffffffffffffffffffffffffffffffffff163373ffffffffffffffffffffffffffffffffffffffff1614610bcb576040517f5cd8319200000000000000000000000000000000000000000000000000000000815260040160405180910390fd5b6000610bd5610f63565b73ffffffffffffffffffffffffffffffffffffffff166357ed7a756040518163ffffffff1660e01b8152600401602060405180830381865afa158015610c1f573d6000803e3d6000fd5b505050506040513d601f19601f82011682018060405250810190610c439190612910565b90508073ffffffffffffffffffffffffffffffffffffffff1663782e2ea584846040518363ffffffff1660e01b8152600401610c80929190613063565b600060405180830381600087803b158015610c9a57600080fd5b505af1158015610cae573d6000803e3d6000fd5b50505050505050565b6000610cc1610f21565b73ffffffffffffffffffffffffffffffffffffffff163373ffffffffffffffffffffffffffffffffffffffff1614610d25576040517f5cd8319200000000000000000000000000000000000000000000000000000000815260040160405180910390fd5b60001515610d31610f54565b60010160008567ffffffffffffffff1667ffffffffffffffff16815260200190815260200160002060050160009054906101000a900460ff16151503610d7a5760009050610db7565b81610d83610f54565b60010160008567ffffffffffffffff1667ffffffffffffffff16815260200190815260200160002060020181905550600190505b92915050565b6000610dc7610f21565b73ffffffffffffffffffffffffffffffffffffffff163373ffffffffffffffffffffffffffffffffffffffff1614610e2b576040517f5cd8319200000000000000000000000000000000000000000000000000000000815260040160405180910390fd5b6000610e35610f63565b73ffffffffffffffffffffffffffffffffffffffff166357ed7a756040518163ffffffff1660e01b8152600401602060405180830381865afa158015610e7f573d6000803e3d6000fd5b505050506040513d601f19601f82011682018060405250810190610ea39190612910565b90508073ffffffffffffffffffffffffffffffffffffffff16632b553551846040518263ffffffff1660e01b8152600401610ede91906122f0565b600060405180830381600087803b158015610ef857600080fd5b505af1158015610f0c573d6000803e3d6000fd5b50505050610f198361175d565b915050919050565b6000610f2b611a55565b60030160009054906101000a900473ffffffffffffffffffffffffffffffffffffffff16905090565b6000610f5e611a82565b905090565b600030905090565b6000801515610f78610f54565b600201600084815260200190815260200160002060050160009054906101000a900460ff16151503610fad57600090506112d4565b6000610fb7610f54565b600201600084815260200190815260200160002060010160009054906101000a900467ffffffffffffffff169050610fed610f54565b6002016000848152602001908152602001600020600080820160006110129190611aaf565b6001820160006101000a81549067ffffffffffffffff021916905560028201600090556003820160006110459190611aaf565b60048201600090556005820160006101000a81549060ff02191690556005820160016101000a81549060ff02191690556006820160006110859190611aaf565b505061108f610f54565b60030161109a610f54565b60010160008367ffffffffffffffff1667ffffffffffffffff1681526020019081526020016000206003016040516110d29190613121565b90815260200160405180910390206000905560006110ee610f54565b60010160008367ffffffffffffffff1667ffffffffffffffff16815260200190815260200160002060050160016101000a81548160ff021916908315150217905550600061113a610f54565b60010160008367ffffffffffffffff1667ffffffffffffffff16815260200190815260200160002060050160006101000a81548160ff0219169083151502179055506000611186610f54565b60010160008367ffffffffffffffff1667ffffffffffffffff1681526020019081526020016000206002018190555060405180604001604052806001815260200160008152506111d4610f54565b60010160008367ffffffffffffffff1667ffffffffffffffff168152602001908152602001600020600001908161120b9190613138565b50604051806040016040528060018152602001600081525061122b610f54565b60010160008367ffffffffffffffff1667ffffffffffffffff16815260200190815260200160002060060190816112629190613138565b507fd4a95e28367a3ce6694042b01d34e7ba0198bcdaca1ffb38eaec9898c748b0ad8161128d610f54565b60010160008467ffffffffffffffff1667ffffffffffffffff1681526020019081526020016000206000016040516112c69291906132bf565b60405180910390a160019150505b919050565b6112e1610f63565b73ffffffffffffffffffffffffffffffffffffffff166327bd069e846040518263ffffffff1660e01b815260040161131991906129ef565b60006040518083038186803b15801561133157600080fd5b505afa158015611345573d6000803e3d6000fd5b505050506001611353610f54565b60040160009054906101000a900467ffffffffffffffff16611375919061331e565b61137d610f54565b60040160006101000a81548167ffffffffffffffff021916908367ffffffffffffffff16021790555060006113b0610f54565b60040160009054906101000a900467ffffffffffffffff169050846113d3610f54565b60010160008367ffffffffffffffff1667ffffffffffffffff168152602001908152602001600020600001908161140a91906126cd565b5082611414610f54565b60010160008367ffffffffffffffff1667ffffffffffffffff168152602001908152602001600020600201819055508361144c610f54565b60010160008367ffffffffffffffff1667ffffffffffffffff168152602001908152602001600020600301908161148391906126cd565b508161148d610f54565b60010160008367ffffffffffffffff1667ffffffffffffffff1681526020019081526020016000206004018190555060016114c6610f54565b60010160008367ffffffffffffffff1667ffffffffffffffff16815260200190815260200160002060050160016101000a81548160ff0219169083151502179055506001611512610f54565b60010160008367ffffffffffffffff1667ffffffffffffffff16815260200190815260200160002060050160006101000a81548160ff0219169083151502179055508061155d610f54565b60010160008367ffffffffffffffff1667ffffffffffffffff16815260200190815260200160002060010160006101000a81548167ffffffffffffffff021916908367ffffffffffffffff1602179055506115b6610f54565b60010160008267ffffffffffffffff1667ffffffffffffffff1681526020019081526020016000206115e6610f54565b60020160008581526020019081526020016000206000820181600001908161160e9190613370565b506001820160009054906101000a900467ffffffffffffffff168160010160006101000a81548167ffffffffffffffff021916908367ffffffffffffffff16021790555060028201548160020155600382018160030190816116709190613370565b50600482015481600401556005820160009054906101000a900460ff168160050160006101000a81548160ff0219169083151502179055506005820160019054906101000a900460ff168160050160016101000a81548160ff021916908315150217905550600682018160060190816116e99190613370565b50905050826116f6610f54565b600301856040516117079190613489565b9081526020016040518091039020819055507fc276b207558b882d6e0e49fc3e221e9fd140cced79dd16fae88e0de97f4a2f0d8186848660405161174e94939291906134af565b60405180910390a15050505050565b600080151561176a610f54565b600201600084815260200190815260200160002060050160019054906101000a900460ff1615150361179f5760009050611a50565b60006117a9610f54565b600201600084815260200190815260200160002060050160016101000a81548160ff02191690831515021790555060006117e1610f54565b600201600084815260200190815260200160002060020181905550604051806040016040528060018152602001600081525061181b610f54565b6002016000848152602001908152602001600020600001908161183e9190613138565b50604051806040016040528060018152602001600081525061185e610f54565b600201600084815260200190815260200160002060060190816118819190613138565b5061188a610f54565b60020160008381526020019081526020016000206118a6610f54565b60010160006118b3610f54565b600201600086815260200190815260200160002060010160009054906101000a900467ffffffffffffffff1667ffffffffffffffff1667ffffffffffffffff168152602001908152602001600020600082018160000190816119159190613370565b506001820160009054906101000a900467ffffffffffffffff168160010160006101000a81548167ffffffffffffffff021916908367ffffffffffffffff16021790555060028201548160020155600382018160030190816119779190613370565b50600482015481600401556005820160009054906101000a900460ff168160050160006101000a81548160ff0219169083151502179055506005820160019054906101000a900460ff168160050160016101000a81548160ff021916908315150217905550600682018160060190816119f09190613370565b509050507fae179513beb9b19a22a2c82f794dfd4d379cbbd2e7e95c744a1ea89ad20032f782611a1e610f54565b6002016000858152602001908152602001600020600301604051611a439291906134fb565b60405180910390a1600190505b919050565b6000807fc8fcad8db84d3cc18b4c41d551ea0ee66dd599cde068d998e57d5e09332c131c90508091505090565b6000807f035ee131163568fac9a362ab82a769d9345c5dfaf5b52a5f407da11035d101e690508091505090565b508054611abb906124f0565b6000825580601f10611acd5750611aec565b601f016020900490600052602060002090810190611aeb9190611aef565b5b50565b5b80821115611b08576000816000905550600101611af0565b5090565b6000604051905090565b600080fd5b600080fd5b6000819050919050565b611b3381611b20565b8114611b3e57600080fd5b50565b600081359050611b5081611b2a565b92915050565b600080fd5b600080fd5b6000601f19601f8301169050919050565b7f4e487b7100000000000000000000000000000000000000000000000000000000600052604160045260246000fd5b611ba982611b60565b810181811067ffffffffffffffff82111715611bc857611bc7611b71565b5b80604052505050565b6000611bdb611b0c565b9050611be78282611ba0565b919050565b600067ffffffffffffffff821115611c0757611c06611b71565b5b611c1082611b60565b9050602081019050919050565b82818337600083830152505050565b6000611c3f611c3a84611bec565b611bd1565b905082815260208101848484011115611c5b57611c5a611b5b565b5b611c66848285611c1d565b509392505050565b600082601f830112611c8357611c82611b56565b5b8135611c93848260208601611c2c565b91505092915050565b60008060408385031215611cb357611cb2611b16565b5b6000611cc185828601611b41565b925050602083013567ffffffffffffffff811115611ce257611ce1611b1b565b5b611cee85828601611c6e565b9150509250929050565b60008115159050919050565b611d0d81611cf8565b82525050565b6000602082019050611d286000830184611d04565b92915050565b600060208284031215611d4457611d43611b16565b5b6000611d5284828501611b41565b91505092915050565b600067ffffffffffffffff821115611d7657611d75611b71565b5b602082029050602081019050919050565b600080fd5b6000611d9f611d9a84611d5b565b611bd1565b90508083825260208201905060208402830185811115611dc257611dc1611d87565b5b835b81811015611deb5780611dd78882611b41565b845260208401935050602081019050611dc4565b5050509392505050565b600082601f830112611e0a57611e09611b56565b5b8135611e1a848260208601611d8c565b91505092915050565b600067ffffffffffffffff821115611e3e57611e3d611b71565b5b602082029050602081019050919050565b6000611e62611e5d84611e23565b611bd1565b90508083825260208201905060208402830185811115611e8557611e84611d87565b5b835b81811015611ecc57803567ffffffffffffffff811115611eaa57611ea9611b56565b5b808601611eb78982611c6e565b85526020850194505050602081019050611e87565b5050509392505050565b600082601f830112611eeb57611eea611b56565b5b8135611efb848260208601611e4f565b91505092915050565b600067ffffffffffffffff821115611f1f57611f1e611b71565b5b602082029050602081019050919050565b6000611f43611f3e84611f04565b611bd1565b90508083825260208201905060208402830185811115611f6657611f65611d87565b5b835b81811015611fad57803567ffffffffffffffff811115611f8b57611f8a611b56565b5b808601611f988982611df5565b85526020850194505050602081019050611f68565b5050509392505050565b600082601f830112611fcc57611fcb611b56565b5b8135611fdc848260208601611f30565b91505092915050565b600067ffffffffffffffff82111561200057611fff611b71565b5b602082029050602081019050919050565b600067ffffffffffffffff82111561202c5761202b611b71565b5b61203582611b60565b9050602081019050919050565b600061205561205084612011565b611bd1565b90508281526020810184848401111561207157612070611b5b565b5b61207c848285611c1d565b509392505050565b600082601f83011261209957612098611b56565b5b81356120a9848260208601612042565b91505092915050565b60006120c56120c084611fe5565b611bd1565b905080838252602082019050602084028301858111156120e8576120e7611d87565b5b835b8181101561212f57803567ffffffffffffffff81111561210d5761210c611b56565b5b80860161211a8982612084565b855260208501945050506020810190506120ea565b5050509392505050565b600082601f83011261214e5761214d611b56565b5b813561215e8482602086016120b2565b91505092915050565b600080600080600080600080610100898b03121561218857612187611b16565b5b600089013567ffffffffffffffff8111156121a6576121a5611b1b565b5b6121b28b828c01611c6e565b985050602089013567ffffffffffffffff8111156121d3576121d2611b1b565b5b6121df8b828c01611c6e565b97505060406121f08b828c01611b41565b965050606089013567ffffffffffffffff81111561221157612210611b1b565b5b61221d8b828c01611df5565b955050608089013567ffffffffffffffff81111561223e5761223d611b1b565b5b61224a8b828c01611ed6565b94505060a089013567ffffffffffffffff81111561226b5761226a611b1b565b5b6122778b828c01611ed6565b93505060c089013567ffffffffffffffff81111561229857612297611b1b565b5b6122a48b828c01611fb7565b92505060e089013567ffffffffffffffff8111156122c5576122c4611b1b565b5b6122d18b828c01612139565b9150509295985092959890939650565b6122ea81611b20565b82525050565b600060208201905061230560008301846122e1565b92915050565b600080600080600060a0868803121561232757612326611b16565b5b600086013567ffffffffffffffff81111561234557612344611b1b565b5b61235188828901611c6e565b955050602086013567ffffffffffffffff81111561237257612371611b1b565b5b61237e88828901611c6e565b945050604061238f88828901611b41565b93505060606123a088828901611b41565b925050608086013567ffffffffffffffff8111156123c1576123c0611b1b565b5b6123cd88828901612139565b9150509295509295909350565b600080604083850312156123f1576123f0611b16565b5b60006123ff85828601611b41565b925050602083013567ffffffffffffffff8111156124205761241f611b1b565b5b61242c85828601612139565b9150509250929050565b600067ffffffffffffffff82169050919050565b61245381612436565b811461245e57600080fd5b50565b6000813590506124708161244a565b92915050565b6000806040838503121561248d5761248c611b16565b5b600061249b85828601612461565b92505060206124ac85828601611b41565b9150509250929050565b600081519050919050565b7f4e487b7100000000000000000000000000000000000000000000000000000000600052602260045260246000fd5b6000600282049050600182168061250857607f821691505b60208210810361251b5761251a6124c1565b5b50919050565b60008190508160005260206000209050919050565b60006020601f8301049050919050565b600082821b905092915050565b6000600883026125837fffffffffffffffffffffffffffffffffffffffffffffffffffffffffffffffff82612546565b61258d8683612546565b95508019841693508086168417925050509392505050565b6000819050919050565b60006125ca6125c56125c084611b20565b6125a5565b611b20565b9050919050565b6000819050919050565b6125e4836125af565b6125f86125f0826125d1565b848454612553565b825550505050565b600090565b61260d612600565b6126188184846125db565b505050565b5b8181101561263c57612631600082612605565b60018101905061261e565b5050565b601f8211156126815761265281612521565b61265b84612536565b8101602085101561266a578190505b61267e61267685612536565b83018261261d565b50505b505050565b600082821c905092915050565b60006126a460001984600802612686565b1980831691505092915050565b60006126bd8383612693565b9150826002028217905092915050565b6126d6826124b6565b67ffffffffffffffff8111156126ef576126ee611b71565b5b6126f982546124f0565b612704828285612640565b600060209050601f8311600181146127375760008415612725578287015190505b61272f85826126b1565b865550612797565b601f19841661274586612521565b60005b8281101561276d57848901518255600182019150602085019450602081019050612748565b8683101561278a5784890151612786601f891682612693565b8355505b6001600288020188555050505b505050505050565b6000815490506127ae816124f0565b9050919050565b60008190508160005260206000209050919050565b8181036127d85750506128b0565b6127e18261279f565b67ffffffffffffffff8111156127fa576127f9611b71565b5b61280482546124f0565b61280f828285612640565b6000601f83116001811461283e576000841561282c578287015490505b61283685826126b1565b8655506128a9565b601f19841661284c876127b5565b965061285786612521565b60005b8281101561287f5784890154825560018201915060018501945060208101905061285a565b8683101561289c5784890154612898601f891682612693565b8355505b6001600288020188555050505b5050505050505b565b600073ffffffffffffffffffffffffffffffffffffffff82169050919050565b60006128dd826128b2565b9050919050565b6128ed816128d2565b81146128f857600080fd5b50565b60008151905061290a816128e4565b92915050565b60006020828403121561292657612925611b16565b5b6000612934848285016128fb565b91505092915050565b600082825260208201905092915050565b60005b8381101561296c578082015181840152602081019050612951565b60008484015250505050565b6000612983826124b6565b61298d818561293d565b935061299d81856020860161294e565b6129a681611b60565b840191505092915050565b600060608201905081810360008301526129cb8186612978565b90506129da60208301856122e1565b6129e760408301846122e1565b949350505050565b60006020820190508181036000830152612a098184612978565b905092915050565b6000819050919050565b6000612a36612a31612a2c84612a11565b6125a5565b611b20565b9050919050565b612a4681612a1b565b82525050565b6000604082019050612a6160008301856122e1565b612a6e6020830184612a3d565b9392505050565b600081519050919050565b600082825260208201905092915050565b6000819050602082019050919050565b612aaa81611b20565b82525050565b6000612abc8383612aa1565b60208301905092915050565b6000602082019050919050565b6000612ae082612a75565b612aea8185612a80565b9350612af583612a91565b8060005b83811015612b26578151612b0d8882612ab0565b9750612b1883612ac8565b925050600181019050612af9565b5085935050505092915050565b600081519050919050565b600082825260208201905092915050565b6000819050602082019050919050565b600082825260208201905092915050565b6000612b7b826124b6565b612b858185612b5f565b9350612b9581856020860161294e565b612b9e81611b60565b840191505092915050565b6000612bb58383612b70565b905092915050565b6000602082019050919050565b6000612bd582612b33565b612bdf8185612b3e565b935083602082028501612bf185612b4f565b8060005b85811015612c2d5784840389528151612c0e8582612ba9565b9450612c1983612bbd565b925060208a01995050600181019050612bf5565b50829750879550505050505092915050565b600081519050919050565b600082825260208201905092915050565b6000819050602082019050919050565b600082825260208201905092915050565b6000612c8782612a75565b612c918185612c6b565b9350612c9c83612a91565b8060005b83811015612ccd578151612cb48882612ab0565b9750612cbf83612ac8565b925050600181019050612ca0565b5085935050505092915050565b6000612ce68383612c7c565b905092915050565b6000602082019050919050565b6000612d0682612c3f565b612d108185612c4a565b935083602082028501612d2285612c5b565b8060005b85811015612d5e5784840389528151612d3f8582612cda565b9450612d4a83612cee565b925060208a01995050600181019050612d26565b50829750879550505050505092915050565b600081519050919050565b600082825260208201905092915050565b6000819050602082019050919050565b600081519050919050565b600082825260208201905092915050565b6000612dc382612d9c565b612dcd8185612da7565b9350612ddd81856020860161294e565b612de681611b60565b840191505092915050565b6000612dfd8383612db8565b905092915050565b6000602082019050919050565b6000612e1d82612d70565b612e278185612d7b565b935083602082028501612e3985612d8c565b8060005b85811015612e755784840389528151612e568582612df1565b9450612e6183612e05565b925060208a01995050600181019050612e3d565b50829750879550505050505092915050565b600061010082019050612e9d600083018b612a3d565b8181036020830152612eaf818a612ad5565b90508181036040830152612ec38189612bca565b90508181036060830152612ed78188612bca565b90508181036080830152612eeb8187612cfb565b905081810360a0830152612eff8186612e12565b9050612f0e60c0830185611d04565b612f1b60e0830184611d04565b9998505050505050505050565b600081519050612f3781611b2a565b92915050565b600060208284031215612f5357612f52611b16565b5b6000612f6184828501612f28565b91505092915050565b600082825260208201905092915050565b7f446f6d61696e57616c6c657452656769737472793a206d65746164617461206e60008201527f616d6520616e642075726c206d7573742062652073657420696e206d6574616460208201527f6174610000000000000000000000000000000000000000000000000000000000604082015250565b6000612ffd604383612f6a565b915061300882612f7b565b606082019050919050565b6000602082019050818103600083015261302c81612ff0565b9050919050565b600060408201905061304860008301856122e1565b818103602083015261305a8184612978565b90509392505050565b600060408201905061307860008301856122e1565b818103602083015261308a8184612e12565b90509392505050565b600081905092915050565b600081546130ab816124f0565b6130b58186613093565b945060018216600081146130d057600181146130e557613118565b60ff1983168652811515820286019350613118565b6130ee85612521565b60005b83811015613110578154818901526001820191506020810190506130f1565b838801955050505b50505092915050565b600061312d828461309e565b915081905092915050565b61314182612d9c565b67ffffffffffffffff81111561315a57613159611b71565b5b61316482546124f0565b61316f828285612640565b600060209050601f8311600181146131a25760008415613190578287015190505b61319a85826126b1565b865550613202565b601f1984166131b086612521565b60005b828110156131d8578489015182556001820191506020850194506020810190506131b3565b868310156131f557848901516131f1601f891682612693565b8355505b6001600288020188555050505b505050505050565b600061322561322061321b84612436565b6125a5565b611b20565b9050919050565b6132358161320a565b82525050565b60008154613248816124f0565b613252818661293d565b9450600182166000811461326d5760018114613283576132b6565b60ff1983168652811515602002860193506132b6565b61328c85612521565b60005b838110156132ae5781548189015260018201915060208101905061328f565b808801955050505b50505092915050565b60006040820190506132d4600083018561322c565b81810360208301526132e6818461323b565b90509392505050565b7f4e487b7100000000000000000000000000000000000000000000000000000000600052601160045260246000fd5b600061332982612436565b915061333483612436565b9250828201905067ffffffffffffffff811115613354576133536132ef565b5b92915050565b600081549050613369816124f0565b9050919050565b81810361337e575050613456565b6133878261335a565b67ffffffffffffffff8111156133a05761339f611b71565b5b6133aa82546124f0565b6133b5828285612640565b6000601f8311600181146133e457600084156133d2578287015490505b6133dc85826126b1565b86555061344f565b601f1984166133f287612521565b96506133fd86612521565b60005b8281101561342557848901548255600182019150600185019450602081019050613400565b86831015613442578489015461343e601f891682612693565b8355505b6001600288020188555050505b5050505050505b565b6000613463826124b6565b61346d8185613093565b935061347d81856020860161294e565b80840191505092915050565b60006134958284613458565b915081905092915050565b6134a981612436565b82525050565b60006080820190506134c460008301876134a0565b81810360208301526134d68186612978565b90506134e560408301856122e1565b6134f260608301846122e1565b95945050505050565b600060408201905061351060008301856122e1565b8181036020830152613522818461323b565b9050939250505056fea2646970667358221220c4af313cbe94283805412322d787174157ab86051e3e6853dbfeca56c8bc224664736f6c63430008110033",
  "linkReferences": {},
  "deployedLinkReferences": {},
  "address": "0x71089Ba41e478702e1904692385Be3972B2cBf9e"
}