{
  "_format": "hh-sol-artifact-1",
  "contractName": "DomainWalletRegistryViewsFacet",
  "sourceName": "contracts/domain-wallets/DomainWalletRegistry/DomainWalletRegistryViewsFacet.sol",
  "abi": [
    {
      "inputs": [
        {
          "internalType": "bytes",
          "name": "uri",
          "type": "bytes"
        },
        {
          "internalType": "uint256",
          "name": "pkpTokenId",
          "type": "uint256"
        }
      ],
      "name": "DomainAlreadyRegistered",
      "type": "error"
    },
    {
      "inputs": [
        {
          "internalType": "bytes",
          "name": "uri",
          "type": "bytes"
        }
      ],
      "name": "checkRegistration",
      "outputs": [],
      "stateMutability": "view",
      "type": "function"
    },
    {
      "inputs": [],
      "name": "getDomainCharacterLimit",
      "outputs": [
        {
          "internalType": "uint256",
          "name": "",
          "type": "uint256"
        }
      ],
      "stateMutability": "view",
      "type": "function"
    },
    {
      "inputs": [
        {
          "internalType": "uint256",
          "name": "pkpTokenId",
          "type": "uint256"
        }
      ],
      "name": "getDomainIdByTokenId",
      "outputs": [
        {
          "internalType": "uint64",
          "name": "",
          "type": "uint64"
        }
      ],
      "stateMutability": "view",
      "type": "function"
    },
    {
      "inputs": [
        {
          "internalType": "bytes",
          "name": "uri",
          "type": "bytes"
        }
      ],
      "name": "getDomainTokenIdByUri",
      "outputs": [
        {
          "internalType": "uint256",
          "name": "",
          "type": "uint256"
        }
      ],
      "stateMutability": "view",
      "type": "function"
    },
    {
      "inputs": [
        {
          "internalType": "uint256",
          "name": "pkpTokenId",
          "type": "uint256"
        }
      ],
      "name": "getDomainUri",
      "outputs": [
        {
          "internalType": "bytes",
          "name": "",
          "type": "bytes"
        }
      ],
      "stateMutability": "view",
      "type": "function"
    },
    {
      "inputs": [],
      "name": "getDomainWalletRegistryAddress",
      "outputs": [
        {
          "internalType": "address",
          "name": "",
          "type": "address"
        }
      ],
      "stateMutability": "view",
      "type": "function"
    },
    {
      "inputs": [
        {
          "internalType": "uint256",
          "name": "pkpTokenId",
          "type": "uint256"
        }
      ],
      "name": "getExpiration",
      "outputs": [
        {
          "internalType": "uint256",
          "name": "",
          "type": "uint256"
        }
      ],
      "stateMutability": "view",
      "type": "function"
    },
    {
      "inputs": [],
      "name": "getPkpHelperAddress",
      "outputs": [
        {
          "internalType": "address",
          "name": "",
          "type": "address"
        }
      ],
      "stateMutability": "view",
      "type": "function"
    },
    {
      "inputs": [
        {
          "internalType": "uint64",
          "name": "id",
          "type": "uint64"
        }
      ],
      "name": "getPkpTokenId",
      "outputs": [
        {
          "internalType": "uint256",
          "name": "",
          "type": "uint256"
        }
      ],
      "stateMutability": "view",
      "type": "function"
    },
    {
      "inputs": [
        {
          "internalType": "uint256",
          "name": "pkpTokenId",
          "type": "uint256"
        }
      ],
      "name": "getRecord",
      "outputs": [
        {
          "internalType": "bytes",
          "name": "",
          "type": "bytes"
        }
      ],
      "stateMutability": "view",
      "type": "function"
    },
    {
      "inputs": [
        {
          "internalType": "uint256",
          "name": "pkpTokenId",
          "type": "uint256"
        }
      ],
      "name": "hasOwner",
      "outputs": [
        {
          "internalType": "bool",
          "name": "",
          "type": "bool"
        }
      ],
      "stateMutability": "view",
      "type": "function"
    },
    {
      "inputs": [
        {
          "internalType": "uint256",
          "name": "pkpTokenId",
          "type": "uint256"
        }
      ],
      "name": "isOwner",
      "outputs": [
        {
          "internalType": "bool",
          "name": "",
          "type": "bool"
        }
      ],
      "stateMutability": "view",
      "type": "function"
    },
    {
      "inputs": [
        {
          "internalType": "uint256",
          "name": "pkpTokenId",
          "type": "uint256"
        }
      ],
      "name": "isRouted",
      "outputs": [
        {
          "internalType": "bool",
          "name": "",
          "type": "bool"
        }
      ],
      "stateMutability": "view",
      "type": "function"
    }
  ],
  "bytecode": "0x608060405234801561001057600080fd5b50611014806100206000396000f3fe608060405234801561001057600080fd5b50600436106100cf5760003560e01c80636a3000c41161008c578063949e50eb11610066578063949e50eb1461024c578063a05b775f1461026a578063a2f421041461029a578063f48d60ca146102ca576100cf565b80636a3000c4146101bc5780636f50cd97146101ec578063880bc4e61461021c576100cf565b806301c6d035146100d457806303e9e6091461010457806327bd069e14610134578063392f72c81461015057806339c7639c1461016e57806357ed7a751461019e575b600080fd5b6100ee60048036038101906100e991906109e0565b6102fa565b6040516100fb9190610a28565b60405180910390f35b61011e600480360381019061011991906109e0565b610330565b60405161012b9190610ad3565b60405180910390f35b61014e60048036038101906101499190610c2a565b6103e1565b005b610158610479565b6040516101659190610c82565b60405180910390f35b610188600480360381019061018391906109e0565b61048c565b6040516101959190610a28565b60405180910390f35b6101a66104c2565b6040516101b39190610cde565b60405180910390f35b6101d660048036038101906101d191906109e0565b610621565b6040516101e39190610ad3565b60405180910390f35b61020660048036038101906102019190610c2a565b6106d2565b6040516102139190610c82565b60405180910390f35b610236600480360381019061023191906109e0565b610703565b6040516102439190610d1c565b60405180910390f35b610254610740565b6040516102619190610cde565b60405180910390f35b610284600480360381019061027f91906109e0565b61089f565b6040516102919190610c82565b60405180910390f35b6102b460048036038101906102af9190610d63565b6108c8565b6040516102c19190610c82565b60405180910390f35b6102e460048036038101906102df91906109e0565b610924565b6040516102f19190610a28565b60405180910390f35b600061030461095a565b600201600083815260200190815260200160002060050160019054906101000a900460ff169050919050565b606061033a61095a565b6002016000838152602001908152602001600020600601805461035c90610dbf565b80601f016020809104026020016040519081016040528092919081815260200182805461038890610dbf565b80156103d55780601f106103aa576101008083540402835291602001916103d5565b820191906000526020600020905b8154815290600101906020018083116103b857829003601f168201915b50505050509050919050565b60006103eb61095a565b600301826040516103fc9190610e2c565b90815260200160405180910390205414610476578061041961095a565b6003018260405161042a9190610e2c565b9081526020016040518091039020546040517f3bcbf6c400000000000000000000000000000000000000000000000000000000815260040161046d929190610e43565b60405180910390fd5b50565b600061048361095a565b60050154905090565b600061049661095a565b600201600083815260200190815260200160002060050160019054906101000a900460ff169050919050565b60006104cc61095a565b60000160009054906101000a900473ffffffffffffffffffffffffffffffffffffffff1673ffffffffffffffffffffffffffffffffffffffff16638e8dfd1661051361095a565b60000160009054906101000a900473ffffffffffffffffffffffffffffffffffffffff1673ffffffffffffffffffffffffffffffffffffffff1663977a80706040518163ffffffff1660e01b8152600401602060405180830381865afa158015610581573d6000803e3d6000fd5b505050506040513d601f19601f820116820180604052508101906105a59190610ea9565b6105ad61095a565b60000160149054906101000a900460ff166040518363ffffffff1660e01b81526004016105db929190610f5c565b602060405180830381865afa1580156105f8573d6000803e3d6000fd5b505050506040513d601f19601f8201168201806040525081019061061c9190610fb1565b905090565b606061062b61095a565b6002016000838152602001908152602001600020600301805461064d90610dbf565b80601f016020809104026020016040519081016040528092919081815260200182805461067990610dbf565b80156106c65780601f1061069b576101008083540402835291602001916106c6565b820191906000526020600020905b8154815290600101906020018083116106a957829003601f168201915b50505050509050919050565b60006106dc61095a565b600301826040516106ed9190610e2c565b9081526020016040518091039020549050919050565b600061070d61095a565b600201600083815260200190815260200160002060010160009054906101000a900467ffffffffffffffff169050919050565b600061074a61095a565b60000160009054906101000a900473ffffffffffffffffffffffffffffffffffffffff1673ffffffffffffffffffffffffffffffffffffffff16638e8dfd1661079161095a565b60000160009054906101000a900473ffffffffffffffffffffffffffffffffffffffff1673ffffffffffffffffffffffffffffffffffffffff16634216e73a6040518163ffffffff1660e01b8152600401602060405180830381865afa1580156107ff573d6000803e3d6000fd5b505050506040513d601f19601f820116820180604052508101906108239190610ea9565b61082b61095a565b60000160149054906101000a900460ff166040518363ffffffff1660e01b8152600401610859929190610f5c565b602060405180830381865afa158015610876573d6000803e3d6000fd5b505050506040513d601f19601f8201168201806040525081019061089a9190610fb1565b905090565b60006108a961095a565b6002016000838152602001908152602001600020600401549050919050565b60006108d261095a565b60020160006108df61095a565b60010160008567ffffffffffffffff1667ffffffffffffffff168152602001908152602001600020600201548152602001908152602001600020600201549050919050565b600061092e61095a565b600201600083815260200190815260200160002060050160019054906101000a900460ff169050919050565b6000610964610969565b905090565b6000807f035ee131163568fac9a362ab82a769d9345c5dfaf5b52a5f407da11035d101e690508091505090565b6000604051905090565b600080fd5b600080fd5b6000819050919050565b6109bd816109aa565b81146109c857600080fd5b50565b6000813590506109da816109b4565b92915050565b6000602082840312156109f6576109f56109a0565b5b6000610a04848285016109cb565b91505092915050565b60008115159050919050565b610a2281610a0d565b82525050565b6000602082019050610a3d6000830184610a19565b92915050565b600081519050919050565b600082825260208201905092915050565b60005b83811015610a7d578082015181840152602081019050610a62565b60008484015250505050565b6000601f19601f8301169050919050565b6000610aa582610a43565b610aaf8185610a4e565b9350610abf818560208601610a5f565b610ac881610a89565b840191505092915050565b60006020820190508181036000830152610aed8184610a9a565b905092915050565b600080fd5b600080fd5b7f4e487b7100000000000000000000000000000000000000000000000000000000600052604160045260246000fd5b610b3782610a89565b810181811067ffffffffffffffff82111715610b5657610b55610aff565b5b80604052505050565b6000610b69610996565b9050610b758282610b2e565b919050565b600067ffffffffffffffff821115610b9557610b94610aff565b5b610b9e82610a89565b9050602081019050919050565b82818337600083830152505050565b6000610bcd610bc884610b7a565b610b5f565b905082815260208101848484011115610be957610be8610afa565b5b610bf4848285610bab565b509392505050565b600082601f830112610c1157610c10610af5565b5b8135610c21848260208601610bba565b91505092915050565b600060208284031215610c4057610c3f6109a0565b5b600082013567ffffffffffffffff811115610c5e57610c5d6109a5565b5b610c6a84828501610bfc565b91505092915050565b610c7c816109aa565b82525050565b6000602082019050610c976000830184610c73565b92915050565b600073ffffffffffffffffffffffffffffffffffffffff82169050919050565b6000610cc882610c9d565b9050919050565b610cd881610cbd565b82525050565b6000602082019050610cf36000830184610ccf565b92915050565b600067ffffffffffffffff82169050919050565b610d1681610cf9565b82525050565b6000602082019050610d316000830184610d0d565b92915050565b610d4081610cf9565b8114610d4b57600080fd5b50565b600081359050610d5d81610d37565b92915050565b600060208284031215610d7957610d786109a0565b5b6000610d8784828501610d4e565b91505092915050565b7f4e487b7100000000000000000000000000000000000000000000000000000000600052602260045260246000fd5b60006002820490506001821680610dd757607f821691505b602082108103610dea57610de9610d90565b5b50919050565b600081905092915050565b6000610e0682610a43565b610e108185610df0565b9350610e20818560208601610a5f565b80840191505092915050565b6000610e388284610dfb565b915081905092915050565b60006040820190508181036000830152610e5d8185610a9a565b9050610e6c6020830184610c73565b9392505050565b6000819050919050565b610e8681610e73565b8114610e9157600080fd5b50565b600081519050610ea381610e7d565b92915050565b600060208284031215610ebf57610ebe6109a0565b5b6000610ecd84828501610e94565b91505092915050565b610edf81610e73565b82525050565b7f4e487b7100000000000000000000000000000000000000000000000000000000600052602160045260246000fd5b60038110610f2557610f24610ee5565b5b50565b6000819050610f3682610f14565b919050565b6000610f4682610f28565b9050919050565b610f5681610f3b565b82525050565b6000604082019050610f716000830185610ed6565b610f7e6020830184610f4d565b9392505050565b610f8e81610cbd565b8114610f9957600080fd5b50565b600081519050610fab81610f85565b92915050565b600060208284031215610fc757610fc66109a0565b5b6000610fd584828501610f9c565b9150509291505056fea264697066735822122044939a9f5f957e81b23b38dc928c3b33b634c710191428ad4c07d72edae112b264736f6c63430008110033",
  "linkReferences": {},
  "deployedLinkReferences": {},
  "address": "0x71089Ba41e478702e1904692385Be3972B2cBf9e"
}