{
  "_format": "hh-sol-artifact-1",
  "contractName": "PKPPermissionsFacet",
  "sourceName": "contracts/lit-node/PKPPermissions/PKPPermissionsFacet.sol",
  "abi": [
    {
      "inputs": [],
      "name": "CallerNotOwner",
      "type": "error"
    },
    {
      "anonymous": false,
      "inputs": [
        {
          "indexed": false,
          "internalType": "address",
          "name": "newResolverAddress",
          "type": "address"
        }
      ],
      "name": "ContractResolverAddressSet",
      "type": "event"
    },
    {
      "anonymous": false,
      "inputs": [
        {
          "indexed": true,
          "internalType": "uint256",
          "name": "tokenId",
          "type": "uint256"
        },
        {
          "indexed": false,
          "internalType": "uint256",
          "name": "authMethodType",
          "type": "uint256"
        },
        {
          "indexed": false,
          "internalType": "bytes",
          "name": "id",
          "type": "bytes"
        },
        {
          "indexed": false,
          "internalType": "bytes",
          "name": "userPubkey",
          "type": "bytes"
        }
      ],
      "name": "PermittedAuthMethodAdded",
      "type": "event"
    },
    {
      "anonymous": false,
      "inputs": [
        {
          "indexed": true,
          "internalType": "uint256",
          "name": "tokenId",
          "type": "uint256"
        },
        {
          "indexed": false,
          "internalType": "uint256",
          "name": "authMethodType",
          "type": "uint256"
        },
        {
          "indexed": false,
          "internalType": "bytes",
          "name": "id",
          "type": "bytes"
        }
      ],
      "name": "PermittedAuthMethodRemoved",
      "type": "event"
    },
    {
      "anonymous": false,
      "inputs": [
        {
          "indexed": true,
          "internalType": "uint256",
          "name": "tokenId",
          "type": "uint256"
        },
        {
          "indexed": false,
          "internalType": "uint256",
          "name": "authMethodType",
          "type": "uint256"
        },
        {
          "indexed": false,
          "internalType": "bytes",
          "name": "id",
          "type": "bytes"
        },
        {
          "indexed": false,
          "internalType": "uint256",
          "name": "scopeId",
          "type": "uint256"
        }
      ],
      "name": "PermittedAuthMethodScopeAdded",
      "type": "event"
    },
    {
      "anonymous": false,
      "inputs": [
        {
          "indexed": true,
          "internalType": "uint256",
          "name": "tokenId",
          "type": "uint256"
        },
        {
          "indexed": false,
          "internalType": "uint256",
          "name": "authMethodType",
          "type": "uint256"
        },
        {
          "indexed": false,
          "internalType": "bytes",
          "name": "id",
          "type": "bytes"
        },
        {
          "indexed": false,
          "internalType": "uint256",
          "name": "scopeId",
          "type": "uint256"
        }
      ],
      "name": "PermittedAuthMethodScopeRemoved",
      "type": "event"
    },
    {
      "anonymous": false,
      "inputs": [
        {
          "indexed": true,
          "internalType": "uint256",
          "name": "tokenId",
          "type": "uint256"
        },
        {
          "indexed": true,
          "internalType": "uint256",
          "name": "group",
          "type": "uint256"
        },
        {
          "indexed": false,
          "internalType": "bytes32",
          "name": "root",
          "type": "bytes32"
        }
      ],
      "name": "RootHashUpdated",
      "type": "event"
    },
    {
      "inputs": [
        {
          "internalType": "uint256",
          "name": "tokenId",
          "type": "uint256"
        },
        {
          "internalType": "bytes",
          "name": "ipfsCID",
          "type": "bytes"
        },
        {
          "internalType": "uint256[]",
          "name": "scopes",
          "type": "uint256[]"
        }
      ],
      "name": "addPermittedAction",
      "outputs": [],
      "stateMutability": "nonpayable",
      "type": "function"
    },
    {
      "inputs": [
        {
          "internalType": "uint256",
          "name": "tokenId",
          "type": "uint256"
        },
        {
          "internalType": "address",
          "name": "user",
          "type": "address"
        },
        {
          "internalType": "uint256[]",
          "name": "scopes",
          "type": "uint256[]"
        }
      ],
      "name": "addPermittedAddress",
      "outputs": [],
      "stateMutability": "nonpayable",
      "type": "function"
    },
    {
      "inputs": [
        {
          "internalType": "uint256",
          "name": "tokenId",
          "type": "uint256"
        },
        {
          "components": [
            {
              "internalType": "uint256",
              "name": "authMethodType",
              "type": "uint256"
            },
            {
              "internalType": "bytes",
              "name": "id",
              "type": "bytes"
            },
            {
              "internalType": "bytes",
              "name": "userPubkey",
              "type": "bytes"
            }
          ],
          "internalType": "struct LibPKPPermissionsStorage.AuthMethod",
          "name": "authMethod",
          "type": "tuple"
        },
        {
          "internalType": "uint256[]",
          "name": "scopes",
          "type": "uint256[]"
        }
      ],
      "name": "addPermittedAuthMethod",
      "outputs": [],
      "stateMutability": "nonpayable",
      "type": "function"
    },
    {
      "inputs": [
        {
          "internalType": "uint256",
          "name": "tokenId",
          "type": "uint256"
        },
        {
          "internalType": "uint256",
          "name": "authMethodType",
          "type": "uint256"
        },
        {
          "internalType": "bytes",
          "name": "id",
          "type": "bytes"
        },
        {
          "internalType": "uint256",
          "name": "scopeId",
          "type": "uint256"
        }
      ],
      "name": "addPermittedAuthMethodScope",
      "outputs": [],
      "stateMutability": "nonpayable",
      "type": "function"
    },
    {
      "inputs": [
        {
          "internalType": "uint256",
          "name": "tokenId",
          "type": "uint256"
        },
        {
          "internalType": "uint256[]",
          "name": "permittedAuthMethodTypesToAdd",
          "type": "uint256[]"
        },
        {
          "internalType": "bytes[]",
          "name": "permittedAuthMethodIdsToAdd",
          "type": "bytes[]"
        },
        {
          "internalType": "bytes[]",
          "name": "permittedAuthMethodPubkeysToAdd",
          "type": "bytes[]"
        },
        {
          "internalType": "uint256[][]",
          "name": "permittedAuthMethodScopesToAdd",
          "type": "uint256[][]"
        },
        {
          "internalType": "uint256[]",
          "name": "permittedAuthMethodTypesToRemove",
          "type": "uint256[]"
        },
        {
          "internalType": "bytes[]",
          "name": "permittedAuthMethodIdsToRemove",
          "type": "bytes[]"
        }
      ],
      "name": "batchAddRemoveAuthMethods",
      "outputs": [],
      "stateMutability": "nonpayable",
      "type": "function"
    },
    {
      "inputs": [
        {
          "internalType": "uint256",
          "name": "authMethodType",
          "type": "uint256"
        },
        {
          "internalType": "bytes",
          "name": "id",
          "type": "bytes"
        }
      ],
      "name": "getAuthMethodId",
      "outputs": [
        {
          "internalType": "uint256",
          "name": "",
          "type": "uint256"
        }
      ],
      "stateMutability": "pure",
      "type": "function"
    },
    {
      "inputs": [
        {
          "internalType": "uint256",
          "name": "tokenId",
          "type": "uint256"
        }
      ],
      "name": "getEthAddress",
      "outputs": [
        {
          "internalType": "address",
          "name": "",
          "type": "address"
        }
      ],
      "stateMutability": "view",
      "type": "function"
    },
    {
      "inputs": [
        {
          "internalType": "uint256",
          "name": "authMethodType",
          "type": "uint256"
        },
        {
          "internalType": "bytes",
          "name": "id",
          "type": "bytes"
        }
      ],
      "name": "getPKPPubKeysByAuthMethod",
      "outputs": [
        {
          "internalType": "bytes[]",
          "name": "",
          "type": "bytes[]"
        }
      ],
      "stateMutability": "view",
      "type": "function"
    },
    {
      "inputs": [
        {
          "internalType": "uint256",
          "name": "tokenId",
          "type": "uint256"
        }
      ],
      "name": "getPermittedActions",
      "outputs": [
        {
          "internalType": "bytes[]",
          "name": "",
          "type": "bytes[]"
        }
      ],
      "stateMutability": "view",
      "type": "function"
    },
    {
      "inputs": [
        {
          "internalType": "uint256",
          "name": "tokenId",
          "type": "uint256"
        }
      ],
      "name": "getPermittedAddresses",
      "outputs": [
        {
          "internalType": "address[]",
          "name": "",
          "type": "address[]"
        }
      ],
      "stateMutability": "view",
      "type": "function"
    },
    {
      "inputs": [
        {
          "internalType": "uint256",
          "name": "tokenId",
          "type": "uint256"
        },
        {
          "internalType": "uint256",
          "name": "authMethodType",
          "type": "uint256"
        },
        {
          "internalType": "bytes",
          "name": "id",
          "type": "bytes"
        },
        {
          "internalType": "uint256",
          "name": "maxScopeId",
          "type": "uint256"
        }
      ],
      "name": "getPermittedAuthMethodScopes",
      "outputs": [
        {
          "internalType": "bool[]",
          "name": "",
          "type": "bool[]"
        }
      ],
      "stateMutability": "view",
      "type": "function"
    },
    {
      "inputs": [
        {
          "internalType": "uint256",
          "name": "tokenId",
          "type": "uint256"
        }
      ],
      "name": "getPermittedAuthMethods",
      "outputs": [
        {
          "components": [
            {
              "internalType": "uint256",
              "name": "authMethodType",
              "type": "uint256"
            },
            {
              "internalType": "bytes",
              "name": "id",
              "type": "bytes"
            },
            {
              "internalType": "bytes",
              "name": "userPubkey",
              "type": "bytes"
            }
          ],
          "internalType": "struct LibPKPPermissionsStorage.AuthMethod[]",
          "name": "",
          "type": "tuple[]"
        }
      ],
      "stateMutability": "view",
      "type": "function"
    },
    {
      "inputs": [],
      "name": "getPkpNftAddress",
      "outputs": [
        {
          "internalType": "address",
          "name": "",
          "type": "address"
        }
      ],
      "stateMutability": "view",
      "type": "function"
    },
    {
      "inputs": [
        {
          "internalType": "uint256",
          "name": "tokenId",
          "type": "uint256"
        }
      ],
      "name": "getPubkey",
      "outputs": [
        {
          "internalType": "bytes",
          "name": "",
          "type": "bytes"
        }
      ],
      "stateMutability": "view",
      "type": "function"
    },
    {
      "inputs": [],
      "name": "getRouterAddress",
      "outputs": [
        {
          "internalType": "address",
          "name": "",
          "type": "address"
        }
      ],
      "stateMutability": "view",
      "type": "function"
    },
    {
      "inputs": [
        {
          "internalType": "uint256",
          "name": "authMethodType",
          "type": "uint256"
        },
        {
          "internalType": "bytes",
          "name": "id",
          "type": "bytes"
        }
      ],
      "name": "getTokenIdsForAuthMethod",
      "outputs": [
        {
          "internalType": "uint256[]",
          "name": "",
          "type": "uint256[]"
        }
      ],
      "stateMutability": "view",
      "type": "function"
    },
    {
      "inputs": [
        {
          "internalType": "uint256",
          "name": "authMethodType",
          "type": "uint256"
        },
        {
          "internalType": "bytes",
          "name": "id",
          "type": "bytes"
        }
      ],
      "name": "getUserPubkeyForAuthMethod",
      "outputs": [
        {
          "internalType": "bytes",
          "name": "",
          "type": "bytes"
        }
      ],
      "stateMutability": "view",
      "type": "function"
    },
    {
      "inputs": [
        {
          "internalType": "uint256",
          "name": "tokenId",
          "type": "uint256"
        },
        {
          "internalType": "bytes",
          "name": "ipfsCID",
          "type": "bytes"
        }
      ],
      "name": "isPermittedAction",
      "outputs": [
        {
          "internalType": "bool",
          "name": "",
          "type": "bool"
        }
      ],
      "stateMutability": "view",
      "type": "function"
    },
    {
      "inputs": [
        {
          "internalType": "uint256",
          "name": "tokenId",
          "type": "uint256"
        },
        {
          "internalType": "address",
          "name": "user",
          "type": "address"
        }
      ],
      "name": "isPermittedAddress",
      "outputs": [
        {
          "internalType": "bool",
          "name": "",
          "type": "bool"
        }
      ],
      "stateMutability": "view",
      "type": "function"
    },
    {
      "inputs": [
        {
          "internalType": "uint256",
          "name": "tokenId",
          "type": "uint256"
        },
        {
          "internalType": "uint256",
          "name": "authMethodType",
          "type": "uint256"
        },
        {
          "internalType": "bytes",
          "name": "id",
          "type": "bytes"
        }
      ],
      "name": "isPermittedAuthMethod",
      "outputs": [
        {
          "internalType": "bool",
          "name": "",
          "type": "bool"
        }
      ],
      "stateMutability": "view",
      "type": "function"
    },
    {
      "inputs": [
        {
          "internalType": "uint256",
          "name": "tokenId",
          "type": "uint256"
        },
        {
          "internalType": "uint256",
          "name": "authMethodType",
          "type": "uint256"
        },
        {
          "internalType": "bytes",
          "name": "id",
          "type": "bytes"
        },
        {
          "internalType": "uint256",
          "name": "scopeId",
          "type": "uint256"
        }
      ],
      "name": "isPermittedAuthMethodScopePresent",
      "outputs": [
        {
          "internalType": "bool",
          "name": "",
          "type": "bool"
        }
      ],
      "stateMutability": "view",
      "type": "function"
    },
    {
      "inputs": [
        {
          "internalType": "uint256",
          "name": "tokenId",
          "type": "uint256"
        },
        {
          "internalType": "bytes",
          "name": "ipfsCID",
          "type": "bytes"
        }
      ],
      "name": "removePermittedAction",
      "outputs": [],
      "stateMutability": "nonpayable",
      "type": "function"
    },
    {
      "inputs": [
        {
          "internalType": "uint256",
          "name": "tokenId",
          "type": "uint256"
        },
        {
          "internalType": "address",
          "name": "user",
          "type": "address"
        }
      ],
      "name": "removePermittedAddress",
      "outputs": [],
      "stateMutability": "nonpayable",
      "type": "function"
    },
    {
      "inputs": [
        {
          "internalType": "uint256",
          "name": "tokenId",
          "type": "uint256"
        },
        {
          "internalType": "uint256",
          "name": "authMethodType",
          "type": "uint256"
        },
        {
          "internalType": "bytes",
          "name": "id",
          "type": "bytes"
        }
      ],
      "name": "removePermittedAuthMethod",
      "outputs": [],
      "stateMutability": "nonpayable",
      "type": "function"
    },
    {
      "inputs": [
        {
          "internalType": "uint256",
          "name": "tokenId",
          "type": "uint256"
        },
        {
          "internalType": "uint256",
          "name": "authMethodType",
          "type": "uint256"
        },
        {
          "internalType": "bytes",
          "name": "id",
          "type": "bytes"
        },
        {
          "internalType": "uint256",
          "name": "scopeId",
          "type": "uint256"
        }
      ],
      "name": "removePermittedAuthMethodScope",
      "outputs": [],
      "stateMutability": "nonpayable",
      "type": "function"
    },
    {
      "inputs": [
        {
          "internalType": "address",
          "name": "newResolverAddress",
          "type": "address"
        }
      ],
      "name": "setContractResolver",
      "outputs": [],
      "stateMutability": "nonpayable",
      "type": "function"
    },
    {
      "inputs": [
        {
          "internalType": "uint256",
          "name": "tokenId",
          "type": "uint256"
        },
        {
          "internalType": "uint256",
          "name": "group",
          "type": "uint256"
        },
        {
          "internalType": "bytes32",
          "name": "root",
          "type": "bytes32"
        }
      ],
      "name": "setRootHash",
      "outputs": [],
      "stateMutability": "nonpayable",
      "type": "function"
    },
    {
      "inputs": [
        {
          "internalType": "uint256",
          "name": "tokenId",
          "type": "uint256"
        },
        {
          "internalType": "uint256",
          "name": "group",
          "type": "uint256"
        },
        {
          "internalType": "bytes32[]",
          "name": "proof",
          "type": "bytes32[]"
        },
        {
          "internalType": "bytes32",
          "name": "leaf",
          "type": "bytes32"
        }
      ],
      "name": "verifyState",
      "outputs": [
        {
          "internalType": "bool",
          "name": "",
          "type": "bool"
        }
      ],
      "stateMutability": "view",
      "type": "function"
    },
    {
      "inputs": [
        {
          "internalType": "uint256",
          "name": "tokenId",
          "type": "uint256"
        },
        {
          "internalType": "uint256",
          "name": "group",
          "type": "uint256"
        },
        {
          "internalType": "bytes32[]",
          "name": "proof",
          "type": "bytes32[]"
        },
        {
          "internalType": "bool[]",
          "name": "proofFlags",
          "type": "bool[]"
        },
        {
          "internalType": "bytes32[]",
          "name": "leaves",
          "type": "bytes32[]"
        }
      ],
      "name": "verifyStates",
      "outputs": [
        {
          "internalType": "bool",
          "name": "",
          "type": "bool"
        }
      ],
      "stateMutability": "view",
      "type": "function"
    }
  ],
  "bytecode": "0x608060405234801561001057600080fd5b5061582a80620000216000396000f3fe608060405234801561001057600080fd5b50600436106101cc5760003560e01c806395e0129411610104578063bd4986a0116100a2578063ef6fd87811610071578063ef6fd87814610595578063f34f21ba146105c5578063f95d71b1146105f5578063fceb398314610611576101cc565b8063bd4986a01461050d578063caead0c71461053d578063d41a32721461055b578063d54f7d5e14610577576101cc565b8063a1c805fa116100de578063a1c805fa14610461578063abc541ae14610491578063b997606f146104c1578063bb7a1070146104dd576101cc565b806395e01294146103f95780639dd4349b14610415578063a1afdc6f14610431576101cc565b8063574b89e4116101715780636821c8e21161014b5780636821c8e21461037557806378c49efa1461039157806382559561146103c15780638a431578146103dd576101cc565b8063574b89e41461030d57806366fc65411461033d5780636705c6f214610359576101cc565b80631663c121116101ad5780631663c1211461026157806345b72bde1461027d5780635521c452146102ad578063557b5eba146102dd576101cc565b80618b4f146101d1578062221c08146102015780630a60950d14610231575b600080fd5b6101eb60048036038101906101e6919061387a565b610641565b6040516101f891906138d5565b60405180910390f35b61021b60048036038101906102169190613955565b6107cf565b6040516102289190613a9b565b60405180910390f35b61024b60048036038101906102469190613bfe565b610907565b6040516102589190613c69565b60405180910390f35b61027b60048036038101906102769190613cda565b61093d565b005b61029760048036038101906102929190613e47565b6109aa565b6040516102a491906138d5565b60405180910390f35b6102c760048036038101906102c29190613eca565b610a08565b6040516102d49190613fe8565b60405180910390f35b6102f760048036038101906102f2919061400a565b610b4a565b60405161030491906138d5565b60405180910390f35b61032760048036038101906103229190613bfe565b610ba9565b60405161033491906141ba565b60405180910390f35b6103576004803603810190610352919061400a565b610cb2565b005b610373600480360381019061036e91906141dc565b610e66565b005b61038f600480360381019061038a9190613955565b610fd2565b005b6103ab60048036038101906103a6919061431e565b6111a5565b6040516103b891906138d5565b60405180910390f35b6103db60048036038101906103d69190613955565b611205565b005b6103f760048036038101906103f291906143ed565b6113d8565b005b610413600480360381019061040e919061467c565b61146b565b005b61042f600480360381019061042a9190614870565b61172b565b005b61044b60048036038101906104469190613eca565b611ae1565b604051610458919061494a565b60405180910390f35b61047b60048036038101906104769190613955565b611c9e565b60405161048891906138d5565b60405180910390f35b6104ab60048036038101906104a6919061496c565b611d42565b6040516104b89190614a57565b60405180910390f35b6104db60048036038101906104d6919061387a565b6123b5565b005b6104f760048036038101906104f2919061496c565b6123f6565b60405161050491906141ba565b60405180910390f35b6105276004803603810190610522919061496c565b612855565b6040516105349190614a88565b60405180910390f35b6105456128e4565b6040516105529190614a88565b60405180910390f35b61057560048036038101906105709190613eca565b612a43565b005b61057f612aaa565b60405161058c9190614a88565b60405180910390f35b6105af60048036038101906105aa919061496c565b612c09565b6040516105bc919061494a565b60405180910390f35b6105df60048036038101906105da919061496c565b612c9e565b6040516105ec9190614bbc565b60405180910390f35b61060f600480360381019061060a9190614bde565b612eef565b005b61062b60048036038101906106269190613eca565b612fdf565b60405161063891906138d5565b60405180910390f35b60008061064c6128e4565b905060008173ffffffffffffffffffffffffffffffffffffffff16634f558e79866040518263ffffffff1660e01b81526004016106899190613c69565b602060405180830381865afa1580156106a6573d6000803e3d6000fd5b505050506040513d601f19601f820116820180604052508101906106ca9190614c20565b156107805760008273ffffffffffffffffffffffffffffffffffffffff16636352211e876040518263ffffffff1660e01b815260040161070a9190613c69565b602060405180830381865afa158015610727573d6000803e3d6000fd5b505050506040513d601f19601f8201168201806040525081019061074b9190614c62565b90508473ffffffffffffffffffffffffffffffffffffffff168173ffffffffffffffffffffffffffffffffffffffff16149150505b6107bd856001600d81111561079857610797614c8f565b5b866040516020016107a99190614d06565b604051602081830303815290604052610b4a565b806107c55750805b9250505092915050565b606060006108218686868080601f016020809104026020016040519081016040528093929190818152602001838380828437600081840152601f19601f82011690508083019250505050505050610907565b9050600061082d61304c565b60020160008981526020019081526020016000206000838152602001908152602001600020905060008467ffffffffffffffff8111156108705761086f613ad3565b5b60405190808252806020026020018201604052801561089e5781602001602082028036833780820191505090505b50905060005b858110156108f7576108bf818461305b90919063ffffffff16565b8282815181106108d2576108d1614d21565b5b60200260200101901515908115158152505080806108ef90614d7f565b9150506108a4565b5080935050505095945050505050565b6000828260405160200161091c929190614dc7565b6040516020818303038152906040528051906020012060001c905092915050565b6109a48460405180606001604052806001600d8111156109605761095f614c8f565b5b8152602001866040516020016109769190614d06565b604051602081830303815290604052815260200160405180602001604052806000815250815250848461172b565b50505050565b6000806109b561304c565b600501600087815260200190815260200160002060008681526020019081526020016000205490506000801b81036109f1576000915050610a00565b6109fc848285613097565b9150505b949350505050565b60606000610a5a8585858080601f016020809104026020016040519081016040528093929190818152602001838380828437600081840152601f19601f82011690508083019250505050505050610907565b90506000610a82610a6961304c565b60040160008481526020019081526020016000206130ae565b905060008167ffffffffffffffff811115610aa057610a9f613ad3565b5b604051908082528060200260200182016040528015610ace5781602001602082028036833780820191505090505b50905060005b82811015610b3c57610b0a81610ae861304c565b60040160008781526020019081526020016000206130c390919063ffffffff16565b828281518110610b1d57610b1c614d21565b5b6020026020010181815250508080610b3490614d7f565b915050610ad4565b508093505050509392505050565b600080610b578484610907565b90506000610b8982610b6761304c565b60010160008981526020019081526020016000206130dd90919063ffffffff16565b905080610b9b57600092505050610ba2565b6001925050505b9392505050565b60606000610bb78484610907565b90506000610bdf610bc661304c565b60040160008481526020019081526020016000206130ae565b905060008167ffffffffffffffff811115610bfd57610bfc613ad3565b5b604051908082528060200260200182016040528015610c3057816020015b6060815260200190600190039081610c1b5790505b50905060005b82811015610ca557610c74610c6f82610c4d61304c565b60040160008881526020019081526020016000206130c390919063ffffffff16565b612c09565b828281518110610c8757610c86614d21565b5b60200260200101819052508080610c9d90614d7f565b915050610c36565b5080935050505092915050565b826000610cbd6128e4565b905060008173ffffffffffffffffffffffffffffffffffffffff16636352211e846040518263ffffffff1660e01b8152600401610cfa9190613c69565b602060405180830381865afa158015610d17573d6000803e3d6000fd5b505050506040513d601f19601f82011682018060405250810190610d3b9190614c62565b90508073ffffffffffffffffffffffffffffffffffffffff163373ffffffffffffffffffffffffffffffffffffffff1614610dab576040517f08c379a0000000000000000000000000000000000000000000000000000000008152600401610da290614e54565b60405180910390fd5b6000610db78686610907565b90506000610dc361304c565b60010160008981526020019081526020016000209050610dec82826130f790919063ffffffff16565b506000610df761304c565b60040160008481526020019081526020016000209050610e2089826130f790919063ffffffff16565b50887f9830658acd6a41f1cb12b425ed83cb2b8ccbfa753337cd13be80be51fc3f33738489604051610e53929190614dc7565b60405180910390a2505050505050505050565b826000610e716128e4565b905060008173ffffffffffffffffffffffffffffffffffffffff16636352211e846040518263ffffffff1660e01b8152600401610eae9190613c69565b602060405180830381865afa158015610ecb573d6000803e3d6000fd5b505050506040513d601f19601f82011682018060405250810190610eef9190614c62565b90508073ffffffffffffffffffffffffffffffffffffffff163373ffffffffffffffffffffffffffffffffffffffff1614610f5f576040517f08c379a0000000000000000000000000000000000000000000000000000000008152600401610f5690614e54565b60405180910390fd5b83610f6861304c565b600501600088815260200190815260200160002060008781526020019081526020016000208190555084867fd4beb656267200ccd79d73dbdfbad162c213e10ebad16508f22cb4df8d3259ad86604051610fc29190614e83565b60405180910390a3505050505050565b846000610fdd6128e4565b905060008173ffffffffffffffffffffffffffffffffffffffff16636352211e846040518263ffffffff1660e01b815260040161101a9190613c69565b602060405180830381865afa158015611037573d6000803e3d6000fd5b505050506040513d601f19601f8201168201806040525081019061105b9190614c62565b90508073ffffffffffffffffffffffffffffffffffffffff163373ffffffffffffffffffffffffffffffffffffffff16146110cb576040517f08c379a00000000000000000000000000000000000000000000000000000000081526004016110c290614e54565b60405180910390fd5b600061111b8888888080601f016020809104026020016040519081016040528093929190818152602001838380828437600081840152601f19601f82011690508083019250505050505050610907565b905061115c8561112961304c565b60020160008c8152602001908152602001600020600084815260200190815260200160002061311190919063ffffffff16565b887f29eb060f266aff306ec81b612728a417406dd6298f8f7576a37b4e6830dcc60e828989896040516111929493929190614ecb565b60405180910390a2505050505050505050565b6000806111b061304c565b600501600088815260200190815260200160002060008781526020019081526020016000205490506000801b81036111ec5760009150506111fc565b6111f88585838661314f565b9150505b95945050505050565b8460006112106128e4565b905060008173ffffffffffffffffffffffffffffffffffffffff16636352211e846040518263ffffffff1660e01b815260040161124d9190613c69565b602060405180830381865afa15801561126a573d6000803e3d6000fd5b505050506040513d601f19601f8201168201806040525081019061128e9190614c62565b90508073ffffffffffffffffffffffffffffffffffffffff163373ffffffffffffffffffffffffffffffffffffffff16146112fe576040517f08c379a00000000000000000000000000000000000000000000000000000000081526004016112f590614e54565b60405180910390fd5b600061134e8888888080601f016020809104026020016040519081016040528093929190818152602001838380828437600081840152601f19601f82011690508083019250505050505050610907565b905061138f8561135c61304c565b60020160008c8152602001908152602001600020600084815260200190815260200160002061316890919063ffffffff16565b887f49bb3a0761ed218e1db1e9c41096ed35188868994cc37a32e1f25855745b424e898989896040516113c59493929190614ecb565b60405180910390a2505050505050505050565b6114648560405180606001604052806002600d8111156113fb576113fa614c8f565b5b815260200187878080601f016020809104026020016040519081016040528093929190818152602001838380828437600081840152601f19601f82011690508083019250505050505050815260200160405180602001604052806000815250815250848461172b565b5050505050565b8760006114766128e4565b905060008173ffffffffffffffffffffffffffffffffffffffff16636352211e846040518263ffffffff1660e01b81526004016114b39190613c69565b602060405180830381865afa1580156114d0573d6000803e3d6000fd5b505050506040513d601f19601f820116820180604052508101906114f49190614c62565b90508073ffffffffffffffffffffffffffffffffffffffff163373ffffffffffffffffffffffffffffffffffffffff1614611564576040517f08c379a000000000000000000000000000000000000000000000000000000000815260040161155b90614e54565b60405180910390fd5b88518a51148015611576575087518951145b80156115855750868690508851145b6115c4576040517f08c379a00000000000000000000000000000000000000000000000000000000081526004016115bb90614fa3565b60405180910390fd5b8351855114611608576040517f08c379a00000000000000000000000000000000000000000000000000000000081526004016115ff90615035565b60405180910390fd5b60005b8a518110156116be576116ab8c60405180606001604052808e858151811061163657611635614d21565b5b602002602001015181526020018d858151811061165657611655614d21565b5b602002602001015181526020018c858151811061167657611675614d21565b5b60200260200101518152508a8a8581811061169457611693614d21565b5b90506020028101906116a69190615064565b61172b565b80806116b690614d7f565b91505061160b565b5060005b855181101561171d5761170a8c8783815181106116e2576116e1614d21565b5b60200260200101518784815181106116fd576116fc614d21565b5b6020026020010151610cb2565b808061171590614d7f565b9150506116c2565b505050505050505050505050565b8360006117366128e4565b905060008173ffffffffffffffffffffffffffffffffffffffff16636352211e846040518263ffffffff1660e01b81526004016117739190613c69565b602060405180830381865afa158015611790573d6000803e3d6000fd5b505050506040513d601f19601f820116820180604052508101906117b49190614c62565b90508073ffffffffffffffffffffffffffffffffffffffff163373ffffffffffffffffffffffffffffffffffffffff1614611824576040517f08c379a000000000000000000000000000000000000000000000000000000000815260040161181b90614e54565b60405180910390fd5b600061183887600001518860200151610907565b90506003600d81111561184e5761184d614c8f565b5b87600001510361190f57600061186261304c565b60030160008381526020019081526020016000206002018054611884906150f6565b905014806118cf57508660400151805190602001206118a161304c565b60030160008381526020019081526020016000206002016040516118c591906151ca565b6040518091039020145b61190e576040517f08c379a000000000000000000000000000000000000000000000000000000000815260040161190590615279565b60405180910390fd5b5b8661191861304c565b600301600083815260200190815260200160002060008201518160000155602082015181600101908161194b9190615430565b5060408201518160020190816119619190615430565b50905050600061196f61304c565b60010160008a8152602001908152602001600020905061199882826131a790919063ffffffff16565b5060006119a361304c565b600401600084815260200190815260200160002090506119cc8a826131a790919063ffffffff16565b5060005b88889050811015611a8c5760008989838181106119f0576119ef614d21565b5b905060200201359050611a3881611a0561304c565b60020160008f8152602001908152602001600020600088815260200190815260200160002061311190919063ffffffff16565b8b7f29eb060f266aff306ec81b612728a417406dd6298f8f7576a37b4e6830dcc60e868d6020015184604051611a7093929190615502565b60405180910390a2508080611a8490614d7f565b9150506119d0565b50897fd7db314a62650aaa1b15d4bb5c95c558a03cde3ee7f36e144b73126a3a8e839a8a600001518b602001518c60400151604051611acd93929190615540565b60405180910390a250505050505050505050565b60606000611b338585858080601f016020809104026020016040519081016040528093929190818152602001838380828437600081840152601f19601f82011690508083019250505050505050610907565b90506000611b3f61304c565b600301600083815260200190815260200160002060405180606001604052908160008201548152602001600182018054611b78906150f6565b80601f0160208091040260200160405190810160405280929190818152602001828054611ba4906150f6565b8015611bf15780601f10611bc657610100808354040283529160200191611bf1565b820191906000526020600020905b815481529060010190602001808311611bd457829003601f168201915b50505050508152602001600282018054611c0a906150f6565b80601f0160208091040260200160405190810160405280929190818152602001828054611c36906150f6565b8015611c835780601f10611c5857610100808354040283529160200191611c83565b820191906000526020600020905b815481529060010190602001808311611c6657829003601f168201915b50505050508152505090508060400151925050509392505050565b600080611cef8686868080601f016020809104026020016040519081016040528093929190818152602001838380828437600081840152601f19601f82011690508083019250505050505050610907565b90506000611d3284611cff61304c565b60020160008b8152602001908152602001600020600085815260200190815260200160002061305b90919063ffffffff16565b9050809250505095945050505050565b60606000611d6a611d5161304c565b60010160008581526020019081526020016000206130ae565b90506000805b82811015611f45576000611da882611d8661304c565b60010160008981526020019081526020016000206130c390919063ffffffff16565b90506000611db461304c565b600301600083815260200190815260200160002060405180606001604052908160008201548152602001600182018054611ded906150f6565b80601f0160208091040260200160405190810160405280929190818152602001828054611e19906150f6565b8015611e665780601f10611e3b57610100808354040283529160200191611e66565b820191906000526020600020905b815481529060010190602001808311611e4957829003601f168201915b50505050508152602001600282018054611e7f906150f6565b80601f0160208091040260200160405190810160405280929190818152602001828054611eab906150f6565b8015611ef85780601f10611ecd57610100808354040283529160200191611ef8565b820191906000526020600020905b815481529060010190602001808311611edb57829003601f168201915b50505050508152505090506001600d811115611f1757611f16614c8f565b5b816000015103611f30578380611f2c90614d7f565b9450505b50508080611f3d90614d7f565b915050611d70565b506000611f506128e4565b905060008173ffffffffffffffffffffffffffffffffffffffff16634f558e79876040518263ffffffff1660e01b8152600401611f8d9190613c69565b602060405180830381865afa158015611faa573d6000803e3d6000fd5b505050506040513d601f19601f82011682018060405250810190611fce9190614c20565b905060606000821561211257600185611fe79190615585565b67ffffffffffffffff81111561200057611fff613ad3565b5b60405190808252806020026020018201604052801561202e5781602001602082028036833780820191505090505b50915060008473ffffffffffffffffffffffffffffffffffffffff16636352211e8a6040518263ffffffff1660e01b815260040161206c9190613c69565b602060405180830381865afa158015612089573d6000803e3d6000fd5b505050506040513d601f19601f820116820180604052508101906120ad9190614c62565b905080836000815181106120c4576120c3614d21565b5b602002602001019073ffffffffffffffffffffffffffffffffffffffff16908173ffffffffffffffffffffffffffffffffffffffff1681525050818061210990614d7f565b9250505061215e565b8467ffffffffffffffff81111561212c5761212b613ad3565b5b60405190808252806020026020018201604052801561215a5781602001602082028036833780820191505090505b5091505b60005b868110156123a65760006121998261217761304c565b60010160008d81526020019081526020016000206130c390919063ffffffff16565b905060006121a561304c565b6003016000838152602001908152602001600020604051806060016040529081600082015481526020016001820180546121de906150f6565b80601f016020809104026020016040519081016040528092919081815260200182805461220a906150f6565b80156122575780601f1061222c57610100808354040283529160200191612257565b820191906000526020600020905b81548152906001019060200180831161223a57829003601f168201915b50505050508152602001600282018054612270906150f6565b80601f016020809104026020016040519081016040528092919081815260200182805461229c906150f6565b80156122e95780601f106122be576101008083540402835291602001916122e9565b820191906000526020600020905b8154815290600101906020018083116122cc57829003601f168201915b50505050508152505090506001600d81111561230857612307614c8f565b5b81600001510361239157600080826020015190506c0100000000000000000000000060208201510491508187878151811061234657612345614d21565b5b602002602001019073ffffffffffffffffffffffffffffffffffffffff16908173ffffffffffffffffffffffffffffffffffffffff1681525050858061238b90614d7f565b96505050505b5050808061239e90614d7f565b915050612161565b50819650505050505050919050565b6123f2826001600d8111156123cd576123cc614c8f565b5b836040516020016123de9190614d06565b604051602081830303815290604052610cb2565b5050565b6060600061241e61240561304c565b60010160008581526020019081526020016000206130ae565b90506000805b828110156125f957600061245c8261243a61304c565b60010160008981526020019081526020016000206130c390919063ffffffff16565b9050600061246861304c565b6003016000838152602001908152602001600020604051806060016040529081600082015481526020016001820180546124a1906150f6565b80601f01602080910402602001604051908101604052809291908181526020018280546124cd906150f6565b801561251a5780601f106124ef5761010080835404028352916020019161251a565b820191906000526020600020905b8154815290600101906020018083116124fd57829003601f168201915b50505050508152602001600282018054612533906150f6565b80601f016020809104026020016040519081016040528092919081815260200182805461255f906150f6565b80156125ac5780601f10612581576101008083540402835291602001916125ac565b820191906000526020600020905b81548152906001019060200180831161258f57829003601f168201915b50505050508152505090506002600d8111156125cb576125ca614c8f565b5b8160000151036125e45783806125e090614d7f565b9450505b505080806125f190614d7f565b915050612424565b5060008167ffffffffffffffff81111561261657612615613ad3565b5b60405190808252806020026020018201604052801561264957816020015b60608152602001906001900390816126345790505b5090506000805b848110156128485760006126888261266661304c565b60010160008b81526020019081526020016000206130c390919063ffffffff16565b9050600061269461304c565b6003016000838152602001908152602001600020604051806060016040529081600082015481526020016001820180546126cd906150f6565b80601f01602080910402602001604051908101604052809291908181526020018280546126f9906150f6565b80156127465780601f1061271b57610100808354040283529160200191612746565b820191906000526020600020905b81548152906001019060200180831161272957829003601f168201915b5050505050815260200160028201805461275f906150f6565b80601f016020809104026020016040519081016040528092919081815260200182805461278b906150f6565b80156127d85780601f106127ad576101008083540402835291602001916127d8565b820191906000526020600020905b8154815290600101906020018083116127bb57829003601f168201915b50505050508152505090506002600d8111156127f7576127f6614c8f565b5b81600001510361283357806020015185858151811061281957612818614d21565b5b6020026020010181905250838061282f90614d7f565b9450505b5050808061284090614d7f565b915050612650565b5081945050505050919050565b600080612860612aaa565b90508073ffffffffffffffffffffffffffffffffffffffff1663bd4986a0846040518263ffffffff1660e01b815260040161289b9190613c69565b602060405180830381865afa1580156128b8573d6000803e3d6000fd5b505050506040513d601f19601f820116820180604052508101906128dc9190614c62565b915050919050565b60006128ee61304c565b60000160009054906101000a900473ffffffffffffffffffffffffffffffffffffffff1673ffffffffffffffffffffffffffffffffffffffff16638e8dfd1661293561304c565b60000160009054906101000a900473ffffffffffffffffffffffffffffffffffffffff1673ffffffffffffffffffffffffffffffffffffffff16632c0b8bf76040518163ffffffff1660e01b8152600401602060405180830381865afa1580156129a3573d6000803e3d6000fd5b505050506040513d601f19601f820116820180604052508101906129c791906155ce565b6129cf61304c565b60000160149054906101000a900460ff166040518363ffffffff1660e01b81526004016129fd929190615643565b602060405180830381865afa158015612a1a573d6000803e3d6000fd5b505050506040513d601f19601f82011682018060405250810190612a3e9190614c62565b905090565b612aa5836002600d811115612a5b57612a5a614c8f565b5b84848080601f016020809104026020016040519081016040528093929190818152602001838380828437600081840152601f19601f82011690508083019250505050505050610cb2565b505050565b6000612ab461304c565b60000160009054906101000a900473ffffffffffffffffffffffffffffffffffffffff1673ffffffffffffffffffffffffffffffffffffffff16638e8dfd16612afb61304c565b60000160009054906101000a900473ffffffffffffffffffffffffffffffffffffffff1673ffffffffffffffffffffffffffffffffffffffff16632668f3056040518163ffffffff1660e01b8152600401602060405180830381865afa158015612b69573d6000803e3d6000fd5b505050506040513d601f19601f82011682018060405250810190612b8d91906155ce565b612b9561304c565b60000160149054906101000a900460ff166040518363ffffffff1660e01b8152600401612bc3929190615643565b602060405180830381865afa158015612be0573d6000803e3d6000fd5b505050506040513d601f19601f82011682018060405250810190612c049190614c62565b905090565b60606000612c15612aaa565b90508073ffffffffffffffffffffffffffffffffffffffff1663ef6fd878846040518263ffffffff1660e01b8152600401612c509190613c69565b600060405180830381865afa158015612c6d573d6000803e3d6000fd5b505050506040513d6000823e3d601f19601f82011682018060405250810190612c9691906156dc565b915050919050565b60606000612cc6612cad61304c565b60010160008581526020019081526020016000206130ae565b905060008167ffffffffffffffff811115612ce457612ce3613ad3565b5b604051908082528060200260200182016040528015612d1d57816020015b612d0a6137b1565b815260200190600190039081612d025790505b50905060005b82811015612ee4576000612d5b82612d3961304c565b60010160008981526020019081526020016000206130c390919063ffffffff16565b9050612d6561304c565b600301600082815260200190815260200160002060405180606001604052908160008201548152602001600182018054612d9e906150f6565b80601f0160208091040260200160405190810160405280929190818152602001828054612dca906150f6565b8015612e175780601f10612dec57610100808354040283529160200191612e17565b820191906000526020600020905b815481529060010190602001808311612dfa57829003601f168201915b50505050508152602001600282018054612e30906150f6565b80601f0160208091040260200160405190810160405280929190818152602001828054612e5c906150f6565b8015612ea95780601f10612e7e57610100808354040283529160200191612ea9565b820191906000526020600020905b815481529060010190602001808311612e8c57829003601f168201915b505050505081525050838381518110612ec557612ec4614d21565b5b6020026020010181905250508080612edc90614d7f565b915050612d23565b508092505050919050565b612ef76131c1565b73ffffffffffffffffffffffffffffffffffffffff163373ffffffffffffffffffffffffffffffffffffffff1614612f5b576040517f5cd8319200000000000000000000000000000000000000000000000000000000815260040160405180910390fd5b80612f6461304c565b60000160006101000a81548173ffffffffffffffffffffffffffffffffffffffff021916908373ffffffffffffffffffffffffffffffffffffffff1602179055507f2760073c7cd8cac531d7f643becbfbb74d8b8156443eacf879622532dbbb3cd581604051612fd49190614a88565b60405180910390a150565b6000613043846002600d811115612ff957612ff8614c8f565b5b85858080601f016020809104026020016040519081016040528093929190818152602001838380828437600081840152601f19601f82011690508083019250505050505050610b4a565b90509392505050565b60006130566131f4565b905090565b600080600883901c9050600060ff84166001901b9050600081866000016000858152602001908152602001600020541614159250505092915050565b6000826130a48584613221565b1490509392505050565b60006130bc82600001613277565b9050919050565b60006130d28360000183613288565b60001c905092915050565b60006130ef836000018360001b6132b3565b905092915050565b6000613109836000018360001b6132d6565b905092915050565b6000600882901c9050600060ff83166001901b9050808460000160008481526020019081526020016000206000828254179250508190555050505050565b60008261315d8686856133ea565b149050949350505050565b6000600882901c9050600060ff83166001901b905080198460000160008481526020019081526020016000206000828254169250508190555050505050565b60006131b9836000018360001b6136d2565b905092915050565b60006131cb613742565b60030160009054906101000a900473ffffffffffffffffffffffffffffffffffffffff16905090565b6000807f66761b57e8ae88aa3322e5b3b3066d05c674943f9480a680ed19fd8c7b26c4b590508091505090565b60008082905060005b845181101561326c576132578286838151811061324a57613249614d21565b5b602002602001015161376f565b9150808061326490614d7f565b91505061322a565b508091505092915050565b600081600001805490509050919050565b60008260000182815481106132a05761329f614d21565b5b9060005260206000200154905092915050565b600080836001016000848152602001908152602001600020541415905092915050565b600080836001016000848152602001908152602001600020549050600081146133de5760006001826133089190615725565b90506000600186600001805490506133209190615725565b905081811461338f57600086600001828154811061334157613340614d21565b5b906000526020600020015490508087600001848154811061336557613364614d21565b5b90600052602060002001819055508387600101600083815260200190815260200160002081905550505b856000018054806133a3576133a2615759565b5b6001900381819060005260206000200160009055905585600101600086815260200190815260200160002060009055600193505050506133e4565b60009150505b92915050565b60008082519050600085519050600085519050806001838561340c9190615585565b6134169190615725565b14613456576040517f08c379a000000000000000000000000000000000000000000000000000000000815260040161344d906157d4565b60405180910390fd5b60008167ffffffffffffffff81111561347257613471613ad3565b5b6040519080825280602002602001820160405280156134a05781602001602082028036833780820191505090505b5090506000806000805b858110156135fa5760008885106134e7578584806134c790614d7f565b9550815181106134da576134d9614d21565b5b602002602001015161350f565b8a85806134f390614d7f565b96508151811061350657613505614d21565b5b60200260200101515b905060008c838151811061352657613525614d21565b5b602002602001015161355e578d848061353e90614d7f565b95508151811061355157613550614d21565b5b60200260200101516135ba565b8986106135915786858061357190614d7f565b96508151811061358457613583614d21565b5b60200260200101516135b9565b8b868061359d90614d7f565b9750815181106135b0576135af614d21565b5b60200260200101515b5b90506135c6828261376f565b8784815181106135d9576135d8614d21565b5b602002602001018181525050505080806135f290614d7f565b9150506134aa565b50600085111561367257858114613646576040517f08c379a000000000000000000000000000000000000000000000000000000000815260040161363d906157d4565b60405180910390fd5b83600186038151811061365c5761365b614d21565b5b60200260200101519750505050505050506136cb565b60008711156136a5578860008151811061368f5761368e614d21565b5b60200260200101519750505050505050506136cb565b8a6000815181106136b9576136b8614d21565b5b60200260200101519750505050505050505b9392505050565b60006136de83836132b3565b61373757826000018290806001815401808255809150506001900390600052602060002001600090919091909150558260000180549050836001016000848152602001908152602001600020819055506001905061373c565b600090505b92915050565b6000807fc8fcad8db84d3cc18b4c41d551ea0ee66dd599cde068d998e57d5e09332c131c90508091505090565b600081831061378757613782828461379a565b613792565b613791838361379a565b5b905092915050565b600082600052816020526040600020905092915050565b60405180606001604052806000815260200160608152602001606081525090565b6000604051905090565b600080fd5b600080fd5b6000819050919050565b6137f9816137e6565b811461380457600080fd5b50565b600081359050613816816137f0565b92915050565b600073ffffffffffffffffffffffffffffffffffffffff82169050919050565b60006138478261381c565b9050919050565b6138578161383c565b811461386257600080fd5b50565b6000813590506138748161384e565b92915050565b60008060408385031215613891576138906137dc565b5b600061389f85828601613807565b92505060206138b085828601613865565b9150509250929050565b60008115159050919050565b6138cf816138ba565b82525050565b60006020820190506138ea60008301846138c6565b92915050565b600080fd5b600080fd5b600080fd5b60008083601f840112613915576139146138f0565b5b8235905067ffffffffffffffff811115613932576139316138f5565b5b60208301915083600182028301111561394e5761394d6138fa565b5b9250929050565b600080600080600060808688031215613971576139706137dc565b5b600061397f88828901613807565b955050602061399088828901613807565b945050604086013567ffffffffffffffff8111156139b1576139b06137e1565b5b6139bd888289016138ff565b935093505060606139d088828901613807565b9150509295509295909350565b600081519050919050565b600082825260208201905092915050565b6000819050602082019050919050565b613a12816138ba565b82525050565b6000613a248383613a09565b60208301905092915050565b6000602082019050919050565b6000613a48826139dd565b613a5281856139e8565b9350613a5d836139f9565b8060005b83811015613a8e578151613a758882613a18565b9750613a8083613a30565b925050600181019050613a61565b5085935050505092915050565b60006020820190508181036000830152613ab58184613a3d565b905092915050565b600080fd5b6000601f19601f8301169050919050565b7f4e487b7100000000000000000000000000000000000000000000000000000000600052604160045260246000fd5b613b0b82613ac2565b810181811067ffffffffffffffff82111715613b2a57613b29613ad3565b5b80604052505050565b6000613b3d6137d2565b9050613b498282613b02565b919050565b600067ffffffffffffffff821115613b6957613b68613ad3565b5b613b7282613ac2565b9050602081019050919050565b82818337600083830152505050565b6000613ba1613b9c84613b4e565b613b33565b905082815260208101848484011115613bbd57613bbc613abd565b5b613bc8848285613b7f565b509392505050565b600082601f830112613be557613be46138f0565b5b8135613bf5848260208601613b8e565b91505092915050565b60008060408385031215613c1557613c146137dc565b5b6000613c2385828601613807565b925050602083013567ffffffffffffffff811115613c4457613c436137e1565b5b613c5085828601613bd0565b9150509250929050565b613c63816137e6565b82525050565b6000602082019050613c7e6000830184613c5a565b92915050565b60008083601f840112613c9a57613c996138f0565b5b8235905067ffffffffffffffff811115613cb757613cb66138f5565b5b602083019150836020820283011115613cd357613cd26138fa565b5b9250929050565b60008060008060608587031215613cf457613cf36137dc565b5b6000613d0287828801613807565b9450506020613d1387828801613865565b935050604085013567ffffffffffffffff811115613d3457613d336137e1565b5b613d4087828801613c84565b925092505092959194509250565b600067ffffffffffffffff821115613d6957613d68613ad3565b5b602082029050602081019050919050565b6000819050919050565b613d8d81613d7a565b8114613d9857600080fd5b50565b600081359050613daa81613d84565b92915050565b6000613dc3613dbe84613d4e565b613b33565b90508083825260208201905060208402830185811115613de657613de56138fa565b5b835b81811015613e0f5780613dfb8882613d9b565b845260208401935050602081019050613de8565b5050509392505050565b600082601f830112613e2e57613e2d6138f0565b5b8135613e3e848260208601613db0565b91505092915050565b60008060008060808587031215613e6157613e606137dc565b5b6000613e6f87828801613807565b9450506020613e8087828801613807565b935050604085013567ffffffffffffffff811115613ea157613ea06137e1565b5b613ead87828801613e19565b9250506060613ebe87828801613d9b565b91505092959194509250565b600080600060408486031215613ee357613ee26137dc565b5b6000613ef186828701613807565b935050602084013567ffffffffffffffff811115613f1257613f116137e1565b5b613f1e868287016138ff565b92509250509250925092565b600081519050919050565b600082825260208201905092915050565b6000819050602082019050919050565b613f5f816137e6565b82525050565b6000613f718383613f56565b60208301905092915050565b6000602082019050919050565b6000613f9582613f2a565b613f9f8185613f35565b9350613faa83613f46565b8060005b83811015613fdb578151613fc28882613f65565b9750613fcd83613f7d565b925050600181019050613fae565b5085935050505092915050565b600060208201905081810360008301526140028184613f8a565b905092915050565b600080600060608486031215614023576140226137dc565b5b600061403186828701613807565b935050602061404286828701613807565b925050604084013567ffffffffffffffff811115614063576140626137e1565b5b61406f86828701613bd0565b9150509250925092565b600081519050919050565b600082825260208201905092915050565b6000819050602082019050919050565b600081519050919050565b600082825260208201905092915050565b60005b838110156140df5780820151818401526020810190506140c4565b60008484015250505050565b60006140f6826140a5565b61410081856140b0565b93506141108185602086016140c1565b61411981613ac2565b840191505092915050565b600061413083836140eb565b905092915050565b6000602082019050919050565b600061415082614079565b61415a8185614084565b93508360208202850161416c85614095565b8060005b858110156141a857848403895281516141898582614124565b945061419483614138565b925060208a01995050600181019050614170565b50829750879550505050505092915050565b600060208201905081810360008301526141d48184614145565b905092915050565b6000806000606084860312156141f5576141f46137dc565b5b600061420386828701613807565b935050602061421486828701613807565b925050604061422586828701613d9b565b9150509250925092565b600067ffffffffffffffff82111561424a57614249613ad3565b5b602082029050602081019050919050565b614264816138ba565b811461426f57600080fd5b50565b6000813590506142818161425b565b92915050565b600061429a6142958461422f565b613b33565b905080838252602082019050602084028301858111156142bd576142bc6138fa565b5b835b818110156142e657806142d28882614272565b8452602084019350506020810190506142bf565b5050509392505050565b600082601f830112614305576143046138f0565b5b8135614315848260208601614287565b91505092915050565b600080600080600060a0868803121561433a576143396137dc565b5b600061434888828901613807565b955050602061435988828901613807565b945050604086013567ffffffffffffffff81111561437a576143796137e1565b5b61438688828901613e19565b935050606086013567ffffffffffffffff8111156143a7576143a66137e1565b5b6143b3888289016142f0565b925050608086013567ffffffffffffffff8111156143d4576143d36137e1565b5b6143e088828901613e19565b9150509295509295909350565b600080600080600060608688031215614409576144086137dc565b5b600061441788828901613807565b955050602086013567ffffffffffffffff811115614438576144376137e1565b5b614444888289016138ff565b9450945050604086013567ffffffffffffffff811115614467576144666137e1565b5b61447388828901613c84565b92509250509295509295909350565b600067ffffffffffffffff82111561449d5761449c613ad3565b5b602082029050602081019050919050565b60006144c16144bc84614482565b613b33565b905080838252602082019050602084028301858111156144e4576144e36138fa565b5b835b8181101561450d57806144f98882613807565b8452602084019350506020810190506144e6565b5050509392505050565b600082601f83011261452c5761452b6138f0565b5b813561453c8482602086016144ae565b91505092915050565b600067ffffffffffffffff8211156145605761455f613ad3565b5b602082029050602081019050919050565b600061458461457f84614545565b613b33565b905080838252602082019050602084028301858111156145a7576145a66138fa565b5b835b818110156145ee57803567ffffffffffffffff8111156145cc576145cb6138f0565b5b8086016145d98982613bd0565b855260208501945050506020810190506145a9565b5050509392505050565b600082601f83011261460d5761460c6138f0565b5b813561461d848260208601614571565b91505092915050565b60008083601f84011261463c5761463b6138f0565b5b8235905067ffffffffffffffff811115614659576146586138f5565b5b602083019150836020820283011115614675576146746138fa565b5b9250929050565b60008060008060008060008060e0898b03121561469c5761469b6137dc565b5b60006146aa8b828c01613807565b985050602089013567ffffffffffffffff8111156146cb576146ca6137e1565b5b6146d78b828c01614517565b975050604089013567ffffffffffffffff8111156146f8576146f76137e1565b5b6147048b828c016145f8565b965050606089013567ffffffffffffffff811115614725576147246137e1565b5b6147318b828c016145f8565b955050608089013567ffffffffffffffff811115614752576147516137e1565b5b61475e8b828c01614626565b945094505060a089013567ffffffffffffffff811115614781576147806137e1565b5b61478d8b828c01614517565b92505060c089013567ffffffffffffffff8111156147ae576147ad6137e1565b5b6147ba8b828c016145f8565b9150509295985092959890939650565b600080fd5b600080fd5b6000606082840312156147ea576147e96147ca565b5b6147f46060613b33565b9050600061480484828501613807565b600083015250602082013567ffffffffffffffff811115614828576148276147cf565b5b61483484828501613bd0565b602083015250604082013567ffffffffffffffff811115614858576148576147cf565b5b61486484828501613bd0565b60408301525092915050565b6000806000806060858703121561488a576148896137dc565b5b600061489887828801613807565b945050602085013567ffffffffffffffff8111156148b9576148b86137e1565b5b6148c5878288016147d4565b935050604085013567ffffffffffffffff8111156148e6576148e56137e1565b5b6148f287828801613c84565b925092505092959194509250565b600082825260208201905092915050565b600061491c826140a5565b6149268185614900565b93506149368185602086016140c1565b61493f81613ac2565b840191505092915050565b600060208201905081810360008301526149648184614911565b905092915050565b600060208284031215614982576149816137dc565b5b600061499084828501613807565b91505092915050565b600081519050919050565b600082825260208201905092915050565b6000819050602082019050919050565b6149ce8161383c565b82525050565b60006149e083836149c5565b60208301905092915050565b6000602082019050919050565b6000614a0482614999565b614a0e81856149a4565b9350614a19836149b5565b8060005b83811015614a4a578151614a3188826149d4565b9750614a3c836149ec565b925050600181019050614a1d565b5085935050505092915050565b60006020820190508181036000830152614a7181846149f9565b905092915050565b614a828161383c565b82525050565b6000602082019050614a9d6000830184614a79565b92915050565b600081519050919050565b600082825260208201905092915050565b6000819050602082019050919050565b6000606083016000830151614ae76000860182613f56565b5060208301518482036020860152614aff82826140eb565b91505060408301518482036040860152614b1982826140eb565b9150508091505092915050565b6000614b328383614acf565b905092915050565b6000602082019050919050565b6000614b5282614aa3565b614b5c8185614aae565b935083602082028501614b6e85614abf565b8060005b85811015614baa5784840389528151614b8b8582614b26565b9450614b9683614b3a565b925060208a01995050600181019050614b72565b50829750879550505050505092915050565b60006020820190508181036000830152614bd68184614b47565b905092915050565b600060208284031215614bf457614bf36137dc565b5b6000614c0284828501613865565b91505092915050565b600081519050614c1a8161425b565b92915050565b600060208284031215614c3657614c356137dc565b5b6000614c4484828501614c0b565b91505092915050565b600081519050614c5c8161384e565b92915050565b600060208284031215614c7857614c776137dc565b5b6000614c8684828501614c4d565b91505092915050565b7f4e487b7100000000000000000000000000000000000000000000000000000000600052602160045260246000fd5b60008160601b9050919050565b6000614cd682614cbe565b9050919050565b6000614ce882614ccb565b9050919050565b614d00614cfb8261383c565b614cdd565b82525050565b6000614d128284614cef565b60148201915081905092915050565b7f4e487b7100000000000000000000000000000000000000000000000000000000600052603260045260246000fd5b7f4e487b7100000000000000000000000000000000000000000000000000000000600052601160045260246000fd5b6000614d8a826137e6565b91507fffffffffffffffffffffffffffffffffffffffffffffffffffffffffffffffff8203614dbc57614dbb614d50565b5b600182019050919050565b6000604082019050614ddc6000830185613c5a565b8181036020830152614dee8184614911565b90509392505050565b600082825260208201905092915050565b7f4e6f7420504b50204e4654206f776e6572000000000000000000000000000000600082015250565b6000614e3e601183614df7565b9150614e4982614e08565b602082019050919050565b60006020820190508181036000830152614e6d81614e31565b9050919050565b614e7d81613d7a565b82525050565b6000602082019050614e986000830184614e74565b92915050565b6000614eaa8385614900565b9350614eb7838584613b7f565b614ec083613ac2565b840190509392505050565b6000606082019050614ee06000830187613c5a565b8181036020830152614ef3818587614e9e565b9050614f026040830184613c5a565b95945050505050565b7f4d75737420686176652073616d65206e756d626572206f662061757468206d6560008201527f74686f64732c206964732c207075626b6579732c20616e642073636f7065732060208201527f746f206164640000000000000000000000000000000000000000000000000000604082015250565b6000614f8d604683614df7565b9150614f9882614f0b565b606082019050919050565b60006020820190508181036000830152614fbc81614f80565b9050919050565b7f4d75737420686176652073616d65206e756d626572206f662061757468206d6560008201527f74686f647320616e642069647320746f2072656d6f7665000000000000000000602082015250565b600061501f603783614df7565b915061502a82614fc3565b604082019050919050565b6000602082019050818103600083015261504e81615012565b9050919050565b600080fd5b600080fd5b600080fd5b6000808335600160200384360303811261508157615080615055565b5b80840192508235915067ffffffffffffffff8211156150a3576150a261505a565b5b6020830192506020820236038313156150bf576150be61505f565b5b509250929050565b7f4e487b7100000000000000000000000000000000000000000000000000000000600052602260045260246000fd5b6000600282049050600182168061510e57607f821691505b602082108103615121576151206150c7565b5b50919050565b600081905092915050565b60008190508160005260206000209050919050565b60008154615154816150f6565b61515e8186615127565b94506001821660008114615179576001811461518e576151c1565b60ff19831686528115158202860193506151c1565b61519785615132565b60005b838110156151b95781548189015260018201915060208101905061519a565b838801955050505b50505092915050565b60006151d68284615147565b915081905092915050565b7f43616e6e6f7420616464206120646966666572656e74207075626b657920666f60008201527f72207468652073616d652061757468206d6574686f64207479706520616e642060208201527f6964000000000000000000000000000000000000000000000000000000000000604082015250565b6000615263604283614df7565b915061526e826151e1565b606082019050919050565b6000602082019050818103600083015261529281615256565b9050919050565b60006020601f8301049050919050565b600082821b905092915050565b6000600883026152e67fffffffffffffffffffffffffffffffffffffffffffffffffffffffffffffffff826152a9565b6152f086836152a9565b95508019841693508086168417925050509392505050565b6000819050919050565b600061532d615328615323846137e6565b615308565b6137e6565b9050919050565b6000819050919050565b61534783615312565b61535b61535382615334565b8484546152b6565b825550505050565b600090565b615370615363565b61537b81848461533e565b505050565b5b8181101561539f57615394600082615368565b600181019050615381565b5050565b601f8211156153e4576153b581615132565b6153be84615299565b810160208510156153cd578190505b6153e16153d985615299565b830182615380565b50505b505050565b600082821c905092915050565b6000615407600019846008026153e9565b1980831691505092915050565b600061542083836153f6565b9150826002028217905092915050565b615439826140a5565b67ffffffffffffffff81111561545257615451613ad3565b5b61545c82546150f6565b6154678282856153a3565b600060209050601f83116001811461549a5760008415615488578287015190505b6154928582615414565b8655506154fa565b601f1984166154a886615132565b60005b828110156154d0578489015182556001820191506020850194506020810190506154ab565b868310156154ed57848901516154e9601f8916826153f6565b8355505b6001600288020188555050505b505050505050565b60006060820190506155176000830186613c5a565b81810360208301526155298185614911565b90506155386040830184613c5a565b949350505050565b60006060820190506155556000830186613c5a565b81810360208301526155678185614911565b9050818103604083015261557b8184614911565b9050949350505050565b6000615590826137e6565b915061559b836137e6565b92508282019050808211156155b3576155b2614d50565b5b92915050565b6000815190506155c881613d84565b92915050565b6000602082840312156155e4576155e36137dc565b5b60006155f2848285016155b9565b91505092915050565b6003811061560c5761560b614c8f565b5b50565b600081905061561d826155fb565b919050565b600061562d8261560f565b9050919050565b61563d81615622565b82525050565b60006040820190506156586000830185614e74565b6156656020830184615634565b9392505050565b600061567f61567a84613b4e565b613b33565b90508281526020810184848401111561569b5761569a613abd565b5b6156a68482856140c1565b509392505050565b600082601f8301126156c3576156c26138f0565b5b81516156d384826020860161566c565b91505092915050565b6000602082840312156156f2576156f16137dc565b5b600082015167ffffffffffffffff8111156157105761570f6137e1565b5b61571c848285016156ae565b91505092915050565b6000615730826137e6565b915061573b836137e6565b925082820390508181111561575357615752614d50565b5b92915050565b7f4e487b7100000000000000000000000000000000000000000000000000000000600052603160045260246000fd5b7f4d65726b6c6550726f6f663a20696e76616c6964206d756c746970726f6f6600600082015250565b60006157be601f83614df7565b91506157c982615788565b602082019050919050565b600060208201905081810360008301526157ed816157b1565b905091905056fea264697066735822122040b77e95b3a3f2535b362dc04b26b42d9c25a146748a981f53a2d5ac16e572a464736f6c63430008110033",
  "linkReferences": {},
  "deployedLinkReferences": {},
  "address": "0x9BcC604D4381C5b0Ad12Ff3Bf32bEdE063416BC7"
}